{
  "contractName": "Elections",
  "abi": [
    {
      "inputs": [
        {
          "internalType": "address",
          "name": "voters",
          "type": "address"
        }
      ],
      "stateMutability": "nonpayable",
      "type": "constructor"
    },
    {
      "anonymous": false,
      "inputs": [
        {
          "indexed": false,
          "internalType": "uint256",
          "name": "eID",
          "type": "uint256"
        },
        {
          "indexed": false,
          "internalType": "uint256",
          "name": "candidateLen",
          "type": "uint256"
        }
      ],
      "name": "electionInfo",
      "type": "event"
    },
    {
      "anonymous": false,
      "inputs": [
        {
          "indexed": false,
          "internalType": "address[]",
          "name": "hasRightVoter",
          "type": "address[]"
        }
      ],
      "name": "printVoters",
      "type": "event"
    },
    {
      "anonymous": false,
      "inputs": [
        {
          "indexed": false,
          "internalType": "string",
          "name": "signSend",
          "type": "string"
        },
        {
          "indexed": false,
          "internalType": "string",
          "name": "signStore",
          "type": "string"
        }
      ],
      "name": "seeVoterSignature",
      "type": "event"
    },
    {
      "inputs": [],
      "name": "admin",
      "outputs": [
        {
          "internalType": "address",
          "name": "",
          "type": "address"
        }
      ],
      "stateMutability": "view",
      "type": "function"
    },
    {
      "inputs": [
        {
          "internalType": "uint256",
          "name": "",
          "type": "uint256"
        },
        {
          "internalType": "uint256",
          "name": "",
          "type": "uint256"
        }
      ],
      "name": "electionCandidate",
      "outputs": [
        {
          "internalType": "uint256",
          "name": "id",
          "type": "uint256"
        },
        {
          "internalType": "string",
          "name": "name",
          "type": "string"
        },
        {
          "internalType": "string",
          "name": "age",
          "type": "string"
        },
        {
          "internalType": "string",
          "name": "gender",
          "type": "string"
        },
        {
          "internalType": "string",
          "name": "party",
          "type": "string"
        },
        {
          "internalType": "string",
          "name": "slogan",
          "type": "string"
        },
        {
          "internalType": "string",
          "name": "voteGet",
          "type": "string"
        }
      ],
      "stateMutability": "view",
      "type": "function"
    },
    {
      "inputs": [
        {
          "internalType": "uint256",
          "name": "",
          "type": "uint256"
        }
      ],
      "name": "elections",
      "outputs": [
        {
          "internalType": "string",
          "name": "name",
          "type": "string"
        },
        {
          "internalType": "enum Elections.ElectionStatus",
          "name": "status",
          "type": "uint8"
        },
        {
          "internalType": "string",
          "name": "desc",
          "type": "string"
        },
        {
          "internalType": "uint256",
          "name": "startD",
          "type": "uint256"
        },
        {
          "internalType": "uint256",
          "name": "endD",
          "type": "uint256"
        }
      ],
      "stateMutability": "view",
      "type": "function"
    },
    {
      "inputs": [
        {
          "internalType": "uint256",
          "name": "",
          "type": "uint256"
        },
        {
          "internalType": "string",
          "name": "",
          "type": "string"
        }
      ],
      "name": "encryptedVerify",
      "outputs": [
        {
          "internalType": "string",
          "name": "",
          "type": "string"
        }
      ],
      "stateMutability": "view",
      "type": "function"
    },
    {
      "inputs": [
        {
          "internalType": "uint256",
          "name": "",
          "type": "uint256"
        }
      ],
      "name": "totalCandidate",
      "outputs": [
        {
          "internalType": "uint256",
          "name": "",
          "type": "uint256"
        }
      ],
      "stateMutability": "view",
      "type": "function"
    },
    {
      "inputs": [],
      "name": "totalElection",
      "outputs": [
        {
          "internalType": "uint256",
          "name": "",
          "type": "uint256"
        }
      ],
      "stateMutability": "view",
      "type": "function"
    },
    {
      "inputs": [
        {
          "internalType": "uint256",
          "name": "",
          "type": "uint256"
        },
        {
          "internalType": "string",
          "name": "",
          "type": "string"
        }
      ],
      "name": "verifyTimeID",
      "outputs": [
        {
          "internalType": "uint256",
          "name": "",
          "type": "uint256"
        }
      ],
      "stateMutability": "view",
      "type": "function"
    },
    {
      "inputs": [],
      "name": "votersContract",
      "outputs": [
        {
          "internalType": "contract Voters",
          "name": "",
          "type": "address"
        }
      ],
      "stateMutability": "view",
      "type": "function"
    },
    {
      "inputs": [
        {
          "internalType": "uint256",
          "name": "id",
          "type": "uint256"
        },
        {
          "internalType": "string",
          "name": "_name",
          "type": "string"
        },
        {
          "internalType": "string",
          "name": "_desc",
          "type": "string"
        },
        {
          "internalType": "string[]",
          "name": "candidateInfo",
          "type": "string[]"
        }
      ],
      "name": "createElection",
      "outputs": [],
      "stateMutability": "nonpayable",
      "type": "function"
    },
    {
      "inputs": [
        {
          "internalType": "uint256",
          "name": "id",
          "type": "uint256"
        },
        {
          "internalType": "string",
          "name": "_name",
          "type": "string"
        },
        {
          "internalType": "string",
          "name": "_desc",
          "type": "string"
        },
        {
          "internalType": "string[]",
          "name": "candidateInfo",
          "type": "string[]"
        }
      ],
      "name": "editElection",
      "outputs": [],
      "stateMutability": "nonpayable",
      "type": "function"
    },
    {
      "inputs": [
        {
          "internalType": "uint256",
          "name": "id",
          "type": "uint256"
        },
        {
          "internalType": "uint256",
          "name": "del",
          "type": "uint256"
        }
      ],
      "name": "deleteElection",
      "outputs": [],
      "stateMutability": "nonpayable",
      "type": "function"
    },
    {
      "inputs": [
        {
          "internalType": "uint256",
          "name": "id",
          "type": "uint256"
        },
        {
          "internalType": "uint256",
          "name": "status",
          "type": "uint256"
        },
        {
          "internalType": "address[]",
          "name": "voters",
          "type": "address[]"
        }
      ],
      "name": "editStatus",
      "outputs": [],
      "stateMutability": "nonpayable",
      "type": "function"
    },
    {
      "inputs": [
        {
          "internalType": "uint256",
          "name": "id",
          "type": "uint256"
        },
        {
          "internalType": "string",
          "name": "sign",
          "type": "string"
        },
        {
          "internalType": "string",
          "name": "encrypted",
          "type": "string"
        },
        {
          "internalType": "string[]",
          "name": "votesGet",
          "type": "string[]"
        }
      ],
      "name": "addVote",
      "outputs": [],
      "stateMutability": "nonpayable",
      "type": "function"
    }
  ],
  "bytecode": "0x608060405260006008553480156200001657600080fd5b50604051620045993803806200459983398181016040528101906200003c91906200012e565b80600260006101000a81548173ffffffffffffffffffffffffffffffffffffffff021916908373ffffffffffffffffffffffffffffffffffffffff160217905550336000806101000a81548173ffffffffffffffffffffffffffffffffffffffff021916908373ffffffffffffffffffffffffffffffffffffffff1602179055505062000160565b600080fd5b600073ffffffffffffffffffffffffffffffffffffffff82169050919050565b6000620000f682620000c9565b9050919050565b6200010881620000e9565b81146200011457600080fd5b50565b6000815190506200012881620000fd565b92915050565b600060208284031215620001475762000146620000c4565b5b6000620001578482850162000117565b91505092915050565b61442980620001706000396000f3fe608060405234801561001057600080fd5b50600436106100cf5760003560e01c806372be5fa91161008c5780638d0371ff116100665780638d0371ff1461022c578063c4e175ef1461024a578063f851a4401461027a578063fc5b616714610298576100cf565b806372be5fa9146101c457806378bb0b64146101f45780637b65aaf214610210576100cf565b806315f4aa5c146100d457806331423a921461010a5780633f825b711461013a5780634e6764c81461015857806355e039f3146101745780635e6fef0114610190575b600080fd5b6100ee60048036038101906100e99190612be6565b6102b4565b6040516101019796959493929190612cce565b60405180910390f35b610124600480360381019061011f9190612e9c565b610633565b6040516101319190612ef8565b60405180910390f35b61014261066e565b60405161014f9190612f92565b60405180910390f35b610172600480360381019061016d9190613063565b610694565b005b61018e60048036038101906101899190613182565b610aab565b005b6101aa60048036038101906101a591906131f6565b61108b565b6040516101bb95949392919061329a565b60405180910390f35b6101de60048036038101906101d991906131f6565b6111de565b6040516101eb9190612ef8565b60405180910390f35b61020e600480360381019061020991906133dc565b6111f6565b005b61022a60048036038101906102259190612be6565b6116c3565b005b610234611b50565b6040516102419190612ef8565b60405180910390f35b610264600480360381019061025f9190612e9c565b611b56565b6040516102719190613497565b60405180910390f35b610282611c19565b60405161028f91906134da565b60405180910390f35b6102b260048036038101906102ad9190613063565b611c3d565b005b6006602052816000526040600020602052806000526040600020600091509150508060000154908060010180546102ea90613524565b80601f016020809104026020016040519081016040528092919081815260200182805461031690613524565b80156103635780601f1061033857610100808354040283529160200191610363565b820191906000526020600020905b81548152906001019060200180831161034657829003601f168201915b50505050509080600201805461037890613524565b80601f01602080910402602001604051908101604052809291908181526020018280546103a490613524565b80156103f15780601f106103c6576101008083540402835291602001916103f1565b820191906000526020600020905b8154815290600101906020018083116103d457829003601f168201915b50505050509080600301805461040690613524565b80601f016020809104026020016040519081016040528092919081815260200182805461043290613524565b801561047f5780601f106104545761010080835404028352916020019161047f565b820191906000526020600020905b81548152906001019060200180831161046257829003601f168201915b50505050509080600401805461049490613524565b80601f01602080910402602001604051908101604052809291908181526020018280546104c090613524565b801561050d5780601f106104e25761010080835404028352916020019161050d565b820191906000526020600020905b8154815290600101906020018083116104f057829003601f168201915b50505050509080600501805461052290613524565b80601f016020809104026020016040519081016040528092919081815260200182805461054e90613524565b801561059b5780601f106105705761010080835404028352916020019161059b565b820191906000526020600020905b81548152906001019060200180831161057e57829003601f168201915b5050505050908060060180546105b090613524565b80601f01602080910402602001604051908101604052809291908181526020018280546105dc90613524565b80156106295780601f106105fe57610100808354040283529160200191610629565b820191906000526020600020905b81548152906001019060200180831161060c57829003601f168201915b5050505050905087565b600560205281600052604060002081805160208101820180518482526020830160208501208183528095505050505050600091509150505481565b600260009054906101000a900473ffffffffffffffffffffffffffffffffffffffff1681565b60008054906101000a900473ffffffffffffffffffffffffffffffffffffffff1673ffffffffffffffffffffffffffffffffffffffff163373ffffffffffffffffffffffffffffffffffffffff1614610722576040517f08c379a0000000000000000000000000000000000000000000000000000000008152600401610719906135c7565b60405180910390fd5b85858080601f016020809104026020016040519081016040528093929190818152602001838380828437600081840152601f19601f8201169050808301925050505050505084848080601f016020809104026020016040519081016040528093929190818152602001838380828437600081840152601f19601f820116905080830192505050505050508383906107b991906135e7565b6040516020016107c89061362d565b60405160208183030381529060405280519060200120836040516020016107ef9190613673565b604051602081830303815290604052805190602001200361080f57600080fd5b60405160200161081e9061362d565b60405160208183030381529060405280519060200120826040516020016108459190613673565b604051602081830303815290604052805190602001200361086557600080fd5b60006006825161087591906136b9565b1461087f57600080fd5b8960405160200161088f9061362d565b60405160208183030381529060405280519060200120600360008381526020019081526020016000206000016040516020016108cb919061377e565b6040516020818303038152906040528051906020012003610921576040517f08c379a000000000000000000000000000000000000000000000000000000000815260040161091890613807565b60405180910390fd5b6000600381111561093557610934613223565b5b600381111561094757610946613223565b5b600360008d815260200190815260200160002060010160009054906101000a900460ff16600381111561097d5761097c613223565b5b146109bd576040517f08c379a00000000000000000000000000000000000000000000000000000000081526004016109b490613899565b60405180910390fd5b60006006878790506109cf91906138e8565b90506000600760008e8152602001908152602001600020549050808210156109fc576109fb8d836116c3565b5b610a9c8d8d8d8080601f016020809104026020016040519081016040528093929190818152602001838380828437600081840152601f19601f820116905080830192505050505050508c8c8080601f016020809104026020016040519081016040528093929190818152602001838380828437600081840152601f19601f820116905080830192505050505050508b8b90610a9791906135e7565b6111f6565b50505050505050505050505050565b60008054906101000a900473ffffffffffffffffffffffffffffffffffffffff1673ffffffffffffffffffffffffffffffffffffffff163373ffffffffffffffffffffffffffffffffffffffff1614610b39576040517f08c379a0000000000000000000000000000000000000000000000000000000008152600401610b30906135c7565b60405180910390fd5b83604051602001610b499061362d565b6040516020818303038152906040528051906020012060036000838152602001908152602001600020600001604051602001610b85919061377e565b6040516020818303038152906040528051906020012003610bdb576040517f08c379a0000000000000000000000000000000000000000000000000000000008152600401610bd290613807565b60405180910390fd5b6000600360008781526020019081526020016000209050600380811115610c0557610c04613223565b5b6003811115610c1757610c16613223565b5b8160010160009054906101000a900460ff166003811115610c3b57610c3a613223565b5b03610c4557600080fd5b60018503610f015760006003811115610c6157610c60613223565b5b6003811115610c7357610c72613223565b5b8160010160009054906101000a900460ff166003811115610c9757610c96613223565b5b14610cd7576040517f08c379a0000000000000000000000000000000000000000000000000000000008152600401610cce9061398b565b60405180910390fd5b7fa8ae30b3488126ffaf40bd730444f06e4030be2bcc39352e3e43f255215c855f8484604051610d08929190613a9a565b60405180910390a1600084849050905060005b81811015610ef55760011515600260009054906101000a900473ffffffffffffffffffffffffffffffffffffffff1673ffffffffffffffffffffffffffffffffffffffff166322fdef94888885818110610d7857610d77613abe565b5b9050602002016020810190610d8d9190613aed565b6040518263ffffffff1660e01b8152600401610da991906134da565b602060405180830381865afa158015610dc6573d6000803e3d6000fd5b505050506040513d601f19601f82011682018060405250810190610dea9190613b52565b151514610e2c576040517f08c379a0000000000000000000000000000000000000000000000000000000008152600401610e2390613bf1565b60405180910390fd5b600260009054906101000a900473ffffffffffffffffffffffffffffffffffffffff1673ffffffffffffffffffffffffffffffffffffffff1663120933c089888885818110610e7e57610e7d613abe565b5b9050602002016020810190610e939190613aed565b6040518363ffffffff1660e01b8152600401610eb0929190613c11565b600060405180830381600087803b158015610eca57600080fd5b505af1158015610ede573d6000803e3d6000fd5b505050508080610eed90613c3a565b915050610d1b565b50428260030181905550505b60028503610f9d5760016003811115610f1d57610f1c613223565b5b6003811115610f2f57610f2e613223565b5b8160010160009054906101000a900460ff166003811115610f5357610f52613223565b5b14610f93576040517f08c379a0000000000000000000000000000000000000000000000000000000008152600401610f8a90613cf4565b60405180910390fd5b4281600401819055505b846003811115610fb057610faf613223565b5b8160010160006101000a81548160ff02191690836003811115610fd657610fd5613223565b5b02179055508060036000888152602001908152602001600020600082018160000190805461100390613524565b61100e9291906129e6565b506001820160009054906101000a900460ff168160010160006101000a81548160ff0219169083600381111561104757611046613223565b5b0217905550600282018160020190805461106090613524565b61106b9291906129e6565b506003820154816003015560048201548160040155905050505050505050565b60036020528060005260406000206000915090508060000180546110ae90613524565b80601f01602080910402602001604051908101604052809291908181526020018280546110da90613524565b80156111275780601f106110fc57610100808354040283529160200191611127565b820191906000526020600020905b81548152906001019060200180831161110a57829003601f168201915b5050505050908060010160009054906101000a900460ff169080600201805461114f90613524565b80601f016020809104026020016040519081016040528092919081815260200182805461117b90613524565b80156111c85780601f1061119d576101008083540402835291602001916111c8565b820191906000526020600020905b8154815290600101906020018083116111ab57829003601f168201915b5050505050908060030154908060040154905085565b60076020528060005260406000206000915090505481565b60008054906101000a900473ffffffffffffffffffffffffffffffffffffffff1673ffffffffffffffffffffffffffffffffffffffff163373ffffffffffffffffffffffffffffffffffffffff1614611284576040517f08c379a000000000000000000000000000000000000000000000000000000000815260040161127b906135c7565b60405180910390fd5b8282826040516020016112969061362d565b60405160208183030381529060405280519060200120836040516020016112bd9190613673565b60405160208183030381529060405280519060200120036112dd57600080fd5b6040516020016112ec9061362d565b60405160208183030381529060405280519060200120826040516020016113139190613673565b604051602081830303815290604052805190602001200361133357600080fd5b60006006825161134391906136b9565b1461134d57600080fd5b6040518060a001604052808781526020016000600381111561137257611371613223565b5b81526020018681526020016000815260200160008152506003600089815260200190815260200160002060008201518160000190805190602001906113b8929190612a73565b5060208201518160010160006101000a81548160ff021916908360038111156113e4576113e3613223565b5b02179055506040820151816002019080519060200190611405929190612a73565b50606082015181600301556080820151816004015590505060006006855161142d91906138e8565b90506000805b82811015611644576040518060e0016040528082815260200188848151811061145f5761145e613abe565b5b60200260200101518152602001888461147790613c3a565b9450848151811061148b5761148a613abe565b5b6020026020010151815260200188846114a390613c3a565b945084815181106114b7576114b6613abe565b5b6020026020010151815260200188846114cf90613c3a565b945084815181106114e3576114e2613abe565b5b6020026020010151815260200188846114fb90613c3a565b9450848151811061150f5761150e613abe565b5b60200260200101518152602001888461152790613c3a565b9450848151811061153b5761153a613abe565b5b6020026020010151815250600660008c81526020019081526020016000206000838152602001908152602001600020600082015181600001556020820151816001019080519060200190611590929190612a73565b5060408201518160020190805190602001906115ad929190612a73565b5060608201518160030190805190602001906115ca929190612a73565b5060808201518160040190805190602001906115e7929190612a73565b5060a0820151816005019080519060200190611604929190612a73565b5060c0820151816006019080519060200190611621929190612a73565b509050508161162f90613c3a565b9150808061163c90613c3a565b915050611433565b507f9f13199b8a261e1dfb1e7a71c7eeb7c424946bbac0d69e2903d9e4b18ea026198983604051611676929190613d14565b60405180910390a181600760008b81526020019081526020016000208190555060085489036116b857600860008154809291906116b290613c3a565b91905055505b505050505050505050565b60008054906101000a900473ffffffffffffffffffffffffffffffffffffffff1673ffffffffffffffffffffffffffffffffffffffff163373ffffffffffffffffffffffffffffffffffffffff1614611751576040517f08c379a0000000000000000000000000000000000000000000000000000000008152600401611748906135c7565b60405180910390fd5b816040516020016117619061362d565b604051602081830303815290604052805190602001206003600083815260200190815260200160002060000160405160200161179d919061377e565b60405160208183030381529060405280519060200120036117f3576040517f08c379a00000000000000000000000000000000000000000000000000000000081526004016117ea90613807565b60405180910390fd5b6000600381111561180757611806613223565b5b600381111561181957611818613223565b5b6003600085815260200190815260200160002060010160009054906101000a900460ff16600381111561184f5761184e613223565b5b1461188f576040517f08c379a000000000000000000000000000000000000000000000000000000000815260040161188690613daf565b60405180910390fd5b6040518060a001604052806040518060200160405280600081525081526020016003808111156118c2576118c1613223565b5b8152602001604051806020016040528060008152508152602001600081526020016000815250600360008581526020019081526020016000206000820151816000019080519060200190611917929190612a73565b5060208201518160010160006101000a81548160ff0219169083600381111561194357611942613223565b5b02179055506040820151816002019080519060200190611964929190612a73565b5060608201518160030155608082015181600401559050506000600760008581526020019081526020016000205490506000600760008681526020019081526020016000208190555060006001846119bc9190613dcf565b90505b81811015611b49576040518060e0016040528060008152602001604051806020016040528060008152508152602001604051806020016040528060008152508152602001604051806020016040528060008152508152602001604051806020016040528060008152508152602001604051806020016040528060008152508152602001604051806020016040528060008152508152506006600060085481526020019081526020016000206000838152602001908152602001600020600082015181600001556020820151816001019080519060200190611aa1929190612a73565b506040820151816002019080519060200190611abe929190612a73565b506060820151816003019080519060200190611adb929190612a73565b506080820151816004019080519060200190611af8929190612a73565b5060a0820151816005019080519060200190611b15929190612a73565b5060c0820151816006019080519060200190611b32929190612a73565b509050508080611b4190613c3a565b9150506119bf565b5050505050565b60085481565b600460205281600052604060002081805160208101820180518482526020830160208501208183528095505050505050600091509150508054611b9890613524565b80601f0160208091040260200160405190810160405280929190818152602001828054611bc490613524565b8015611c115780601f10611be657610100808354040283529160200191611c11565b820191906000526020600020905b815481529060010190602001808311611bf457829003601f168201915b505050505081565b60008054906101000a900473ffffffffffffffffffffffffffffffffffffffff1681565b86604051602001611c4d9061362d565b6040516020818303038152906040528051906020012060036000838152602001908152602001600020600001604051602001611c89919061377e565b6040516020818303038152906040528051906020012003611cdf576040517f08c379a0000000000000000000000000000000000000000000000000000000008152600401611cd690613807565b60405180910390fd5b60011515600260009054906101000a900473ffffffffffffffffffffffffffffffffffffffff1673ffffffffffffffffffffffffffffffffffffffff166322fdef94336040518263ffffffff1660e01b8152600401611d3e91906134da565b602060405180830381865afa158015611d5b573d6000803e3d6000fd5b505050506040513d601f19601f82011682018060405250810190611d7f9190613b52565b151514611dc1576040517f08c379a0000000000000000000000000000000000000000000000000000000008152600401611db890613e75565b60405180910390fd5b60011515600260009054906101000a900473ffffffffffffffffffffffffffffffffffffffff1673ffffffffffffffffffffffffffffffffffffffff166319eb8d48338b6040518363ffffffff1660e01b8152600401611e22929190613e95565b602060405180830381865afa158015611e3f573d6000803e3d6000fd5b505050506040513d601f19601f82011682018060405250810190611e639190613b52565b151514611ea5576040517f08c379a0000000000000000000000000000000000000000000000000000000008152600401611e9c90613f30565b60405180910390fd5b7ffe9731c30f8b29799e30eaf6de543ccbf6aa8df0ecf3ac23420965500eb2d965600260009054906101000a900473ffffffffffffffffffffffffffffffffffffffff1673ffffffffffffffffffffffffffffffffffffffff1663eff0d8c6336040518263ffffffff1660e01b8152600401611f2191906134da565b600060405180830381865afa158015611f3e573d6000803e3d6000fd5b505050506040513d6000823e3d601f19601f82011682018060405250810190611f679190613fc0565b8888604051611f7893929190614036565b60405180910390a18686604051602001611f93929190614094565b60405160208183030381529060405280519060200120600260009054906101000a900473ffffffffffffffffffffffffffffffffffffffff1673ffffffffffffffffffffffffffffffffffffffff1663eff0d8c6336040518263ffffffff1660e01b815260040161200491906134da565b600060405180830381865afa158015612021573d6000803e3d6000fd5b505050506040513d6000823e3d601f19601f8201168201806040525081019061204a9190613fc0565b60405160200161205a9190613673565b60405160208183030381529060405280519060200120146120b0576040517f08c379a00000000000000000000000000000000000000000000000000000000081526004016120a79061411f565b60405180910390fd5b6040516020016120bf9061362d565b6040516020818303038152906040528051906020012085856040516020016120e8929190614094565b604051602081830303815290604052805190602001200361213e576040517f08c379a00000000000000000000000000000000000000000000000000000000081526004016121359061418b565b60405180910390fd5b60001515600260009054906101000a900473ffffffffffffffffffffffffffffffffffffffff1673ffffffffffffffffffffffffffffffffffffffff16638ee36f05338b6040518363ffffffff1660e01b815260040161219f929190613e95565b602060405180830381865afa1580156121bc573d6000803e3d6000fd5b505050506040513d601f19601f820116820180604052508101906121e09190613b52565b151514612222576040517f08c379a0000000000000000000000000000000000000000000000000000000008152600401612219906141f7565b60405180910390fd5b6001600381111561223657612235613223565b5b600381111561224857612247613223565b5b600360008a815260200190815260200160002060010160009054906101000a900460ff16600381111561227e5761227d613223565b5b146122be576040517f08c379a00000000000000000000000000000000000000000000000000000000081526004016122b590614289565b60405180910390fd5b60008054906101000a900473ffffffffffffffffffffffffffffffffffffffff1673ffffffffffffffffffffffffffffffffffffffff163373ffffffffffffffffffffffffffffffffffffffff160361234c576040517f08c379a0000000000000000000000000000000000000000000000000000000008152600401612343906142f5565b60405180910390fd5b600760008981526020019081526020016000205483839050146123a4576040517f08c379a000000000000000000000000000000000000000000000000000000000815260040161239b90614361565b60405180910390fd5b43600560008a815260200190815260200160002088886040516123c8929190614094565b9081526020016040518091039020819055508484600460008b815260200190815260200160002089896040516123ff929190614094565b9081526020016040518091039020919061241a929190612af9565b506000600760008a815260200190815260200160002054905060005b8181101561294b576000600660008c815260200190815260200160002060008381526020019081526020016000206040518060e00160405290816000820154815260200160018201805461248990613524565b80601f01602080910402602001604051908101604052809291908181526020018280546124b590613524565b80156125025780601f106124d757610100808354040283529160200191612502565b820191906000526020600020905b8154815290600101906020018083116124e557829003601f168201915b5050505050815260200160028201805461251b90613524565b80601f016020809104026020016040519081016040528092919081815260200182805461254790613524565b80156125945780601f1061256957610100808354040283529160200191612594565b820191906000526020600020905b81548152906001019060200180831161257757829003601f168201915b505050505081526020016003820180546125ad90613524565b80601f01602080910402602001604051908101604052809291908181526020018280546125d990613524565b80156126265780601f106125fb57610100808354040283529160200191612626565b820191906000526020600020905b81548152906001019060200180831161260957829003601f168201915b5050505050815260200160048201805461263f90613524565b80601f016020809104026020016040519081016040528092919081815260200182805461266b90613524565b80156126b85780601f1061268d576101008083540402835291602001916126b8565b820191906000526020600020905b81548152906001019060200180831161269b57829003601f168201915b505050505081526020016005820180546126d190613524565b80601f01602080910402602001604051908101604052809291908181526020018280546126fd90613524565b801561274a5780601f1061271f5761010080835404028352916020019161274a565b820191906000526020600020905b81548152906001019060200180831161272d57829003601f168201915b5050505050815260200160068201805461276390613524565b80601f016020809104026020016040519081016040528092919081815260200182805461278f90613524565b80156127dc5780601f106127b1576101008083540402835291602001916127dc565b820191906000526020600020905b8154815290600101906020018083116127bf57829003601f168201915b50505050508152505090508585838181106127fa576127f9613abe565b5b905060200281019061280c9190614390565b8080601f016020809104026020016040519081016040528093929190818152602001838380828437600081840152601f19601f820116905080830192505050505050508160c0018190525080600660008d815260200190815260200160002060008481526020019081526020016000206000820151816000015560208201518160010190805190602001906128a2929190612a73565b5060408201518160020190805190602001906128bf929190612a73565b5060608201518160030190805190602001906128dc929190612a73565b5060808201518160040190805190602001906128f9929190612a73565b5060a0820151816005019080519060200190612916929190612a73565b5060c0820151816006019080519060200190612933929190612a73565b5090505050808061294390613c3a565b915050612436565b50600260009054906101000a900473ffffffffffffffffffffffffffffffffffffffff1673ffffffffffffffffffffffffffffffffffffffff1663ebefe09a338b6040518363ffffffff1660e01b81526004016129a9929190613e95565b600060405180830381600087803b1580156129c357600080fd5b505af11580156129d7573d6000803e3d6000fd5b50505050505050505050505050565b8280546129f290613524565b90600052602060002090601f016020900481019282612a145760008555612a62565b82601f10612a255780548555612a62565b82800160010185558215612a6257600052602060002091601f016020900482015b82811115612a61578254825591600101919060010190612a46565b5b509050612a6f9190612b7f565b5090565b828054612a7f90613524565b90600052602060002090601f016020900481019282612aa15760008555612ae8565b82601f10612aba57805160ff1916838001178555612ae8565b82800160010185558215612ae8579182015b82811115612ae7578251825591602001919060010190612acc565b5b509050612af59190612b7f565b5090565b828054612b0590613524565b90600052602060002090601f016020900481019282612b275760008555612b6e565b82601f10612b4057803560ff1916838001178555612b6e565b82800160010185558215612b6e579182015b82811115612b6d578235825591602001919060010190612b52565b5b509050612b7b9190612b7f565b5090565b5b80821115612b98576000816000905550600101612b80565b5090565b6000604051905090565b600080fd5b600080fd5b6000819050919050565b612bc381612bb0565b8114612bce57600080fd5b50565b600081359050612be081612bba565b92915050565b60008060408385031215612bfd57612bfc612ba6565b5b6000612c0b85828601612bd1565b9250506020612c1c85828601612bd1565b9150509250929050565b612c2f81612bb0565b82525050565b600081519050919050565b600082825260208201905092915050565b60005b83811015612c6f578082015181840152602081019050612c54565b83811115612c7e576000848401525b50505050565b6000601f19601f8301169050919050565b6000612ca082612c35565b612caa8185612c40565b9350612cba818560208601612c51565b612cc381612c84565b840191505092915050565b600060e082019050612ce3600083018a612c26565b8181036020830152612cf58189612c95565b90508181036040830152612d098188612c95565b90508181036060830152612d1d8187612c95565b90508181036080830152612d318186612c95565b905081810360a0830152612d458185612c95565b905081810360c0830152612d598184612c95565b905098975050505050505050565b600080fd5b600080fd5b7f4e487b7100000000000000000000000000000000000000000000000000000000600052604160045260246000fd5b612da982612c84565b810181811067ffffffffffffffff82111715612dc857612dc7612d71565b5b80604052505050565b6000612ddb612b9c565b9050612de78282612da0565b919050565b600067ffffffffffffffff821115612e0757612e06612d71565b5b612e1082612c84565b9050602081019050919050565b82818337600083830152505050565b6000612e3f612e3a84612dec565b612dd1565b905082815260208101848484011115612e5b57612e5a612d6c565b5b612e66848285612e1d565b509392505050565b600082601f830112612e8357612e82612d67565b5b8135612e93848260208601612e2c565b91505092915050565b60008060408385031215612eb357612eb2612ba6565b5b6000612ec185828601612bd1565b925050602083013567ffffffffffffffff811115612ee257612ee1612bab565b5b612eee85828601612e6e565b9150509250929050565b6000602082019050612f0d6000830184612c26565b92915050565b600073ffffffffffffffffffffffffffffffffffffffff82169050919050565b6000819050919050565b6000612f58612f53612f4e84612f13565b612f33565b612f13565b9050919050565b6000612f6a82612f3d565b9050919050565b6000612f7c82612f5f565b9050919050565b612f8c81612f71565b82525050565b6000602082019050612fa76000830184612f83565b92915050565b600080fd5b600080fd5b60008083601f840112612fcd57612fcc612d67565b5b8235905067ffffffffffffffff811115612fea57612fe9612fad565b5b60208301915083600182028301111561300657613005612fb2565b5b9250929050565b60008083601f84011261302357613022612d67565b5b8235905067ffffffffffffffff8111156130405761303f612fad565b5b60208301915083602082028301111561305c5761305b612fb2565b5b9250929050565b60008060008060008060006080888a03121561308257613081612ba6565b5b60006130908a828b01612bd1565b975050602088013567ffffffffffffffff8111156130b1576130b0612bab565b5b6130bd8a828b01612fb7565b9650965050604088013567ffffffffffffffff8111156130e0576130df612bab565b5b6130ec8a828b01612fb7565b9450945050606088013567ffffffffffffffff81111561310f5761310e612bab565b5b61311b8a828b0161300d565b925092505092959891949750929550565b60008083601f84011261314257613141612d67565b5b8235905067ffffffffffffffff81111561315f5761315e612fad565b5b60208301915083602082028301111561317b5761317a612fb2565b5b9250929050565b6000806000806060858703121561319c5761319b612ba6565b5b60006131aa87828801612bd1565b94505060206131bb87828801612bd1565b935050604085013567ffffffffffffffff8111156131dc576131db612bab565b5b6131e88782880161312c565b925092505092959194509250565b60006020828403121561320c5761320b612ba6565b5b600061321a84828501612bd1565b91505092915050565b7f4e487b7100000000000000000000000000000000000000000000000000000000600052602160045260246000fd5b6004811061326357613262613223565b5b50565b600081905061327482613252565b919050565b600061328482613266565b9050919050565b61329481613279565b82525050565b600060a08201905081810360008301526132b48188612c95565b90506132c3602083018761328b565b81810360408301526132d58186612c95565b90506132e46060830185612c26565b6132f16080830184612c26565b9695505050505050565b600067ffffffffffffffff82111561331657613315612d71565b5b602082029050602081019050919050565b600061333a613335846132fb565b612dd1565b9050808382526020820190506020840283018581111561335d5761335c612fb2565b5b835b818110156133a457803567ffffffffffffffff81111561338257613381612d67565b5b80860161338f8982612e6e565b8552602085019450505060208101905061335f565b5050509392505050565b600082601f8301126133c3576133c2612d67565b5b81356133d3848260208601613327565b91505092915050565b600080600080608085870312156133f6576133f5612ba6565b5b600061340487828801612bd1565b945050602085013567ffffffffffffffff81111561342557613424612bab565b5b61343187828801612e6e565b935050604085013567ffffffffffffffff81111561345257613451612bab565b5b61345e87828801612e6e565b925050606085013567ffffffffffffffff81111561347f5761347e612bab565b5b61348b878288016133ae565b91505092959194509250565b600060208201905081810360008301526134b18184612c95565b905092915050565b60006134c482612f13565b9050919050565b6134d4816134b9565b82525050565b60006020820190506134ef60008301846134cb565b92915050565b7f4e487b7100000000000000000000000000000000000000000000000000000000600052602260045260246000fd5b6000600282049050600182168061353c57607f821691505b60208210810361354f5761354e6134f5565b5b50919050565b7f4f6e6c792061646d696e2063616e20706572666f726d2074686973206163746960008201527f6f6e2e0000000000000000000000000000000000000000000000000000000000602082015250565b60006135b1602383612c40565b91506135bc82613555565b604082019050919050565b600060208201905081810360008301526135e0816135a4565b9050919050565b60006135f4368484613327565b905092915050565b600081905092915050565b50565b60006136176000836135fc565b915061362282613607565b600082019050919050565b60006136388261360a565b9150819050919050565b600061364d82612c35565b61365781856135fc565b9350613667818560208601612c51565b80840191505092915050565b600061367f8284613642565b915081905092915050565b7f4e487b7100000000000000000000000000000000000000000000000000000000600052601260045260246000fd5b60006136c482612bb0565b91506136cf83612bb0565b9250826136df576136de61368a565b5b828206905092915050565b60008190508160005260206000209050919050565b6000815461370c81613524565b61371681866135fc565b94506001821660008114613731576001811461374257613775565b60ff19831686528186019350613775565b61374b856136ea565b60005b8381101561376d5781548189015260018201915060208101905061374e565b838801955050505b50505092915050565b600061378a82846136ff565b915081905092915050565b7f54686520656c656374696f6e206d75737420657869737420746f20706572666f60008201527f726d2074686520616374696f6e2e000000000000000000000000000000000000602082015250565b60006137f1602e83612c40565b91506137fc82613795565b604082019050919050565b60006020820190508181036000830152613820816137e4565b9050919050565b7f456c656374696f6e20616c726561647920737461727465642c2063616e6e6f7460008201527f2065646974000000000000000000000000000000000000000000000000000000602082015250565b6000613883602583612c40565b915061388e82613827565b604082019050919050565b600060208201905081810360008301526138b281613876565b9050919050565b7f4e487b7100000000000000000000000000000000000000000000000000000000600052601160045260246000fd5b60006138f382612bb0565b91506138fe83612bb0565b92508261390e5761390d61368a565b5b828204905092915050565b7f456c656374696f6e206d75737420626520696e697469616c207374617475732060008201527f6265666f72652073746172742e00000000000000000000000000000000000000602082015250565b6000613975602d83612c40565b915061398082613919565b604082019050919050565b600060208201905081810360008301526139a481613968565b9050919050565b600082825260208201905092915050565b6000819050919050565b6139cf816134b9565b82525050565b60006139e183836139c6565b60208301905092915050565b6139f6816134b9565b8114613a0157600080fd5b50565b600081359050613a13816139ed565b92915050565b6000613a286020840184613a04565b905092915050565b6000602082019050919050565b6000613a4983856139ab565b9350613a54826139bc565b8060005b85811015613a8d57613a6a8284613a19565b613a7488826139d5565b9750613a7f83613a30565b925050600181019050613a58565b5085925050509392505050565b60006020820190508181036000830152613ab5818486613a3d565b90509392505050565b7f4e487b7100000000000000000000000000000000000000000000000000000000600052603260045260246000fd5b600060208284031215613b0357613b02612ba6565b5b6000613b1184828501613a04565b91505092915050565b60008115159050919050565b613b2f81613b1a565b8114613b3a57600080fd5b50565b600081519050613b4c81613b26565b92915050565b600060208284031215613b6857613b67612ba6565b5b6000613b7684828501613b3d565b91505092915050565b7f4f6e6c79207265676973746572656420766f746572732063616e20686173207260008201527f6967687420746f20766f74650000000000000000000000000000000000000000602082015250565b6000613bdb602c83612c40565b9150613be682613b7f565b604082019050919050565b60006020820190508181036000830152613c0a81613bce565b9050919050565b6000604082019050613c266000830185612c26565b613c3360208301846134cb565b9392505050565b6000613c4582612bb0565b91507fffffffffffffffffffffffffffffffffffffffffffffffffffffffffffffffff8203613c7757613c766138b9565b5b600182019050919050565b7f456c656374696f6e206d757374206265206f6e676f696e67207374617475732060008201527f6265666f726520656e642e000000000000000000000000000000000000000000602082015250565b6000613cde602b83612c40565b9150613ce982613c82565b604082019050919050565b60006020820190508181036000830152613d0d81613cd1565b9050919050565b6000604082019050613d296000830185612c26565b613d366020830184612c26565b9392505050565b7f4f6e6c7920696e697469616c207374617475732063616e2062652064656c657460008201527f65642e0000000000000000000000000000000000000000000000000000000000602082015250565b6000613d99602383612c40565b9150613da482613d3d565b604082019050919050565b60006020820190508181036000830152613dc881613d8c565b9050919050565b6000613dda82612bb0565b9150613de583612bb0565b925082821015613df857613df76138b9565b5b828203905092915050565b7f566f746572206e65656420746f207265676973746572206265666f726520766f60008201527f7465000000000000000000000000000000000000000000000000000000000000602082015250565b6000613e5f602283612c40565b9150613e6a82613e03565b604082019050919050565b60006020820190508181036000830152613e8e81613e52565b9050919050565b6000604082019050613eaa60008301856134cb565b613eb76020830184612c26565b9392505050565b7f566f74657220646f6573206e6f74206861766520726967687420746f20766f7460008201527f6520696e207468697320656c656374696f6e0000000000000000000000000000602082015250565b6000613f1a603283612c40565b9150613f2582613ebe565b604082019050919050565b60006020820190508181036000830152613f4981613f0d565b9050919050565b6000613f63613f5e84612dec565b612dd1565b905082815260208101848484011115613f7f57613f7e612d6c565b5b613f8a848285612c51565b509392505050565b600082601f830112613fa757613fa6612d67565b5b8151613fb7848260208601613f50565b91505092915050565b600060208284031215613fd657613fd5612ba6565b5b600082015167ffffffffffffffff811115613ff457613ff3612bab565b5b61400084828501613f92565b91505092915050565b60006140158385612c40565b9350614022838584612e1d565b61402b83612c84565b840190509392505050565b600060408201905081810360008301526140508186612c95565b90508181036020830152614065818486614009565b9050949350505050565b600061407b83856135fc565b9350614088838584612e1d565b82840190509392505050565b60006140a182848661406f565b91508190509392505050565b7f546865207369676e617475726520766572696669636174696f6e206661696c6560008201527f6400000000000000000000000000000000000000000000000000000000000000602082015250565b6000614109602183612c40565b9150614114826140ad565b604082019050919050565b60006020820190508181036000830152614138816140fc565b9050919050565b7f566f746520696e666f6d6174696f6e2063616e6e6f7420626520656d70747900600082015250565b6000614175601f83612c40565b91506141808261413f565b602082019050919050565b600060208201905081810360008301526141a481614168565b9050919050565b7f566f7465722063616e6e6f7420766f7465207477696365000000000000000000600082015250565b60006141e1601783612c40565b91506141ec826141ab565b602082019050919050565b60006020820190508181036000830152614210816141d4565b9050919050565b7f456c656374696f6e206d757374206265206f6e676f696e6720746f206163636560008201527f707420766f746500000000000000000000000000000000000000000000000000602082015250565b6000614273602783612c40565b915061427e82614217565b604082019050919050565b600060208201905081810360008301526142a281614266565b9050919050565b7f41646d696e206973206e6f7420616c6c6f77656420746f20766f746500000000600082015250565b60006142df601c83612c40565b91506142ea826142a9565b602082019050919050565b6000602082019050818103600083015261430e816142d2565b9050919050565b7f566f746520696e76616c69640000000000000000000000000000000000000000600082015250565b600061434b600c83612c40565b915061435682614315565b602082019050919050565b6000602082019050818103600083015261437a8161433e565b9050919050565b600080fd5b600080fd5b600080fd5b600080833560016020038436030381126143ad576143ac614381565b5b80840192508235915067ffffffffffffffff8211156143cf576143ce614386565b5b6020830192506001820236038313156143eb576143ea61438b565b5b50925092905056fea264697066735822122057aba9ac799604fc907c03286aa45488a0cfd2015db10a197133f5e656d2df8e64736f6c634300080d0033",
  "immutableReferences": {},
  "source": "// SPDX-License-Identifier: MIT\r\npragma solidity >=0.6.6 <0.9.0;\r\npragma experimental ABIEncoderV2;\r\nimport \"./Voters.sol\";\r\n\r\ncontract Elections {\r\n    // Represent Election's status - 0, 1, 2, 3\r\n    enum ElectionStatus {\r\n        INIT,\r\n        START,\r\n        END,\r\n        ABORT\r\n    }\r\n    address public admin; // verify\r\n    string name;\r\n    Voters public votersContract;\r\n\r\n    struct Election {\r\n        string name;\r\n        ElectionStatus status;\r\n        string desc;\r\n        uint256 startD;\r\n        uint256 endD;\r\n    }\r\n    struct Candidate {\r\n        uint256 id;\r\n        string name;\r\n        string age;\r\n        string gender;\r\n        string party;\r\n        string slogan;\r\n        string voteGet;\r\n    }\r\n\r\n    // store election ID, basically the uint will be same, then use the ID to find candidate\r\n    mapping(uint256 => Election) public elections;\r\n\r\n    // election ID, then the voter's signature (so can be verify by anyone), then the encrypted string that can only be decrypted by voter\r\n    mapping(uint256 => mapping(string => string)) public encryptedVerify;\r\n\r\n    // voter's signature --> then block number, so can retrieve time and transaction ID\r\n    mapping(uint256 => mapping(string => uint256)) public verifyTimeID;\r\n\r\n    // election ID => candidate mapping\r\n    mapping(uint256 => mapping(uint256 => Candidate)) public electionCandidate;\r\n\r\n    // election ID => totalCandidate inside that election\r\n    mapping(uint256 => uint256) public totalCandidate;\r\n\r\n    // total elections created\r\n    uint256 public totalElection = 0;\r\n\r\n    // when create election, view election ID and candidates\r\n    event electionInfo(uint256 eID, uint256 candidateLen);\r\n\r\n    // construct Voter contract and admin\r\n    constructor(address voters) public {\r\n        votersContract = Voters(voters);\r\n        admin = msg.sender;\r\n    }\r\n\r\n    // make sure only admin can perform certain function\r\n    modifier onlyAdmin() {\r\n        require(msg.sender == admin, \"Only admin can perform this action.\");\r\n        _;\r\n    }\r\n\r\n    // make sure some parameter is not empty\r\n    modifier notEmpty(\r\n        string memory _name,\r\n        string memory _desc,\r\n        string[] memory candidateInfo\r\n    ) {\r\n        require(\r\n            keccak256(abi.encodePacked(_name)) !=\r\n                keccak256(abi.encodePacked(\"\"))\r\n        );\r\n        require(\r\n            keccak256(abi.encodePacked(_desc)) !=\r\n                keccak256(abi.encodePacked(\"\"))\r\n        );\r\n        require((candidateInfo.length % 6) == 0);\r\n        _;\r\n    }\r\n\r\n    // make sure the election id is valid\r\n    modifier idValid(uint256 _id) {\r\n        require(\r\n            keccak256(abi.encodePacked(elections[_id].name)) !=\r\n                keccak256(abi.encodePacked(\"\")),\r\n            \"The election must exist to perform the action.\"\r\n        );\r\n        _;\r\n    }\r\n\r\n    /**\r\n        createElection will create a new election and add in elections mapping\r\n        :param id: election ID\r\n        :param _name: election's name\r\n        :param candidateInfo: candidate's information - name, age, party, slogan, voteGet\r\n    */\r\n    function createElection(\r\n        uint256 id,\r\n        string memory _name,\r\n        string memory _desc,\r\n        string[] memory candidateInfo\r\n    ) public onlyAdmin notEmpty(_name, _desc, candidateInfo) {\r\n        elections[id] = Election(_name, ElectionStatus.INIT, _desc, 0, 0);\r\n        uint256 length = candidateInfo.length / 6;\r\n        uint256 index = 0;\r\n        for (uint256 x = 0; x < length; x++) {\r\n            electionCandidate[id][x] = Candidate(\r\n                x,\r\n                candidateInfo[index],\r\n                candidateInfo[++index],\r\n                candidateInfo[++index],\r\n                candidateInfo[++index],\r\n                candidateInfo[++index],\r\n                candidateInfo[++index]\r\n            );\r\n            ++index;\r\n        }\r\n        emit electionInfo(id, length);\r\n        totalCandidate[id] = length;\r\n\r\n        if (id == totalElection) {\r\n            totalElection++;\r\n        }\r\n    }\r\n\r\n    /**\r\n        editElection can update the elections by delete the original election's info, then update will new one\r\n        :param id: election ID\r\n        :param _name: election's name\r\n        :param candidateInfo: candidate's information - name, age, party, slogan, voteGet\r\n    */\r\n    function editElection(\r\n        uint256 id,\r\n        string calldata _name,\r\n        string calldata _desc,\r\n        string[] calldata candidateInfo\r\n    ) external onlyAdmin notEmpty(_name, _desc, candidateInfo) idValid(id) {\r\n        require(\r\n            elections[id].status == ElectionStatus(0),\r\n            \"Election already started, cannot edit\"\r\n        ); // must be initial stage to be edit\r\n\r\n        uint256 length = candidateInfo.length / 6;\r\n        uint256 oriLength = totalCandidate[id];\r\n        // as evertime execute here wait very long, so adjust no need to delete all\r\n        // if new info is longer then no need empty first as will replace eventually\r\n        // if new info is shorter then just need to empty the original's extra\r\n        if (length < oriLength) {\r\n            deleteElection(id, length);\r\n        }\r\n        createElection(id, _name, _desc, candidateInfo);\r\n    }\r\n\r\n    /**\r\n        deleteElection will empty the elections mapping\r\n        :param id: election's id that want to del    \r\n        :param del: the candidate info that we delete from. eg del = 2\r\n        , we del candidate 2 to the last candidate in this election\r\n     */\r\n    function deleteElection(uint256 id, uint256 del)\r\n        public\r\n        onlyAdmin\r\n        idValid(id)\r\n    {\r\n        require(\r\n            elections[id].status == ElectionStatus(0),\r\n            \"Only initial status can be deleted.\"\r\n        ); // must be initial stage to be edit\r\n\r\n        elections[id] = Election(\"\", ElectionStatus.ABORT, \"\", 0, 0);\r\n        uint256 candidateLength = totalCandidate[id];\r\n        totalCandidate[id] = 0;\r\n        for (uint256 x = (del - 1); x < candidateLength; x++) {\r\n            electionCandidate[totalElection][x] = Candidate(\r\n                0,\r\n                \"\",\r\n                \"\",\r\n                \"\",\r\n                \"\",\r\n                \"\",\r\n                \"\"\r\n            );\r\n        }\r\n    }\r\n\r\n    event printVoters(address[] hasRightVoter);\r\n\r\n    /**\r\n        editStatus can edit the election's status\r\n        :param id: election's id\r\n        :param status: election's new status\r\n        :param voters: voter's address that is allowed to vote\r\n     */\r\n    function editStatus(\r\n        uint256 id,\r\n        uint256 status,\r\n        address[] calldata voters\r\n    ) external onlyAdmin idValid(id) {\r\n        Election storage tmp = elections[id];\r\n        require(tmp.status != ElectionStatus(3));\r\n        if (status == 1) {\r\n            require(\r\n                tmp.status == ElectionStatus(0),\r\n                \"Election must be initial status before start.\"\r\n            );\r\n            emit printVoters(voters);\r\n            uint256 vLength = voters.length;\r\n            for (uint256 x = 0; x < vLength; x++) {\r\n                require(\r\n                    votersContract.isRegister(voters[x]) == true,\r\n                    \"Only registered voters can has right to vote\"\r\n                );\r\n                votersContract.setCanVote(id, voters[x]);\r\n            }\r\n            tmp.startD = block.timestamp;\r\n        }\r\n        if (status == 2) {\r\n            require(\r\n                tmp.status == ElectionStatus(1),\r\n                \"Election must be ongoing status before end.\"\r\n            );\r\n            tmp.endD = block.timestamp;\r\n        }\r\n        tmp.status = ElectionStatus(status);\r\n        elections[id] = tmp;\r\n    }\r\n\r\n    // see voters signature\r\n    event seeVoterSignature(string signSend, string signStore);\r\n\r\n    /**\r\n     * add Vote anonymously(know who address is voting but do not know who they vote)\r\n     * param: id - the election ID\r\n     * param: sign - the voter's signature\r\n     * param: encrypted - encrypted msg (only voter can decrypt and understand)\r\n     * param: votesGet - the candidates votes (homomorphically encrypt)\r\n     */\r\n    function addVote(\r\n        uint256 id,\r\n        string calldata sign,\r\n        string calldata encrypted,\r\n        string[] calldata votesGet\r\n    ) external idValid(id) {\r\n        require(\r\n            votersContract.isRegister(msg.sender) == true,\r\n            \"Voter need to register before vote\"\r\n        );\r\n        require(\r\n            votersContract.canVote(msg.sender, id) == true,\r\n            \"Voter does not have right to vote in this election\"\r\n        );\r\n        emit seeVoterSignature(votersContract.voterSignature(msg.sender), sign);\r\n\r\n        require(\r\n            keccak256(\r\n                abi.encodePacked(votersContract.voterSignature(msg.sender))\r\n            ) == keccak256(abi.encodePacked(sign)),\r\n            \"The signature verification failed\"\r\n        );\r\n\r\n        require(\r\n            keccak256(abi.encodePacked(encrypted)) !=\r\n                keccak256(abi.encodePacked(\"\")),\r\n            \"Vote infomation cannot be empty\"\r\n        );\r\n\r\n        require(\r\n            votersContract.isVoted(msg.sender, id) == false,\r\n            \"Voter cannot vote twice\"\r\n        );\r\n        require(\r\n            elections[id].status == ElectionStatus(1),\r\n            \"Election must be ongoing to accept vote\"\r\n        );\r\n        require(msg.sender != admin, \"Admin is not allowed to vote\");\r\n        require(votesGet.length == totalCandidate[id], \"Vote invalid\");\r\n\r\n        verifyTimeID[id][sign] = block.number;\r\n        encryptedVerify[id][sign] = encrypted;\r\n        uint256 candidateLength = totalCandidate[id];\r\n        for (uint256 x = 0; x < candidateLength; x++) {\r\n            Candidate memory candidate = electionCandidate[id][x];\r\n            candidate.voteGet = votesGet[x];\r\n            electionCandidate[id][x] = candidate;\r\n        }\r\n        votersContract.setIsVoted(msg.sender, id);\r\n    }\r\n}\r\n",
  "sourcePath": "D:\\MMU\\Degree\\Third_Year\\Final Year Project\\Phase_2\\FYP_EVotingBlockchain\\contracts\\Elections.sol",
  "compiler": {
    "name": "solc",
    "version": "0.8.13+commit.abaa5c0e.Emscripten.clang"
  },
  "schemaVersion": "3.4.3",
  "updatedAt": "2022-03-22T08:40:57.035Z",
  "devdoc": {
    "kind": "dev",
    "methods": {},
    "version": 1
  },
  "userdoc": {
    "kind": "user",
    "methods": {
      "addVote(uint256,string,string,string[])": {
        "notice": "add Vote anonymously(know who address is voting but do not know who they vote) param: id - the election ID param: sign - the voter's signature param: encrypted - encrypted msg (only voter can decrypt and understand) param: votesGet - the candidates votes (homomorphically encrypt)"
      },
      "createElection(uint256,string,string,string[])": {
        "notice": "createElection will create a new election and add in elections mapping :param id: election ID :param _name: election's name :param candidateInfo: candidate's information - name, age, party, slogan, voteGet"
      },
      "deleteElection(uint256,uint256)": {
        "notice": "deleteElection will empty the elections mapping :param id: election's id that want to del     :param del: the candidate info that we delete from. eg del = 2 , we del candidate 2 to the last candidate in this election"
      },
      "editElection(uint256,string,string,string[])": {
        "notice": "editElection can update the elections by delete the original election's info, then update will new one :param id: election ID :param _name: election's name :param candidateInfo: candidate's information - name, age, party, slogan, voteGet"
      },
      "editStatus(uint256,uint256,address[])": {
        "notice": "editStatus can edit the election's status :param id: election's id :param status: election's new status :param voters: voter's address that is allowed to vote"
      }
    },
    "version": 1
  }
}