{
  "contractName": "Voters",
  "abi": [
    {
      "inputs": [],
      "stateMutability": "nonpayable",
      "type": "constructor"
    },
    {
      "anonymous": false,
      "inputs": [
        {
          "indexed": false,
          "internalType": "bytes32",
          "name": "message",
          "type": "bytes32"
        },
        {
          "indexed": false,
          "internalType": "address",
          "name": "signer",
          "type": "address"
        }
      ],
      "name": "verifySigner",
      "type": "event"
    },
    {
      "inputs": [],
      "name": "admin",
      "outputs": [
        {
          "internalType": "address",
          "name": "",
          "type": "address"
        }
      ],
      "stateMutability": "view",
      "type": "function"
    },
    {
      "inputs": [
        {
          "internalType": "address",
          "name": "",
          "type": "address"
        },
        {
          "internalType": "uint256",
          "name": "",
          "type": "uint256"
        }
      ],
      "name": "canVote",
      "outputs": [
        {
          "internalType": "bool",
          "name": "",
          "type": "bool"
        }
      ],
      "stateMutability": "view",
      "type": "function"
    },
    {
      "inputs": [
        {
          "internalType": "address",
          "name": "",
          "type": "address"
        }
      ],
      "name": "isRegister",
      "outputs": [
        {
          "internalType": "bool",
          "name": "",
          "type": "bool"
        }
      ],
      "stateMutability": "view",
      "type": "function"
    },
    {
      "inputs": [
        {
          "internalType": "address",
          "name": "",
          "type": "address"
        },
        {
          "internalType": "uint256",
          "name": "",
          "type": "uint256"
        }
      ],
      "name": "isVoted",
      "outputs": [
        {
          "internalType": "bool",
          "name": "",
          "type": "bool"
        }
      ],
      "stateMutability": "view",
      "type": "function"
    },
    {
      "inputs": [
        {
          "internalType": "uint256",
          "name": "",
          "type": "uint256"
        }
      ],
      "name": "voterAddress",
      "outputs": [
        {
          "internalType": "address",
          "name": "",
          "type": "address"
        }
      ],
      "stateMutability": "view",
      "type": "function"
    },
    {
      "inputs": [],
      "name": "voterCount",
      "outputs": [
        {
          "internalType": "uint256",
          "name": "",
          "type": "uint256"
        }
      ],
      "stateMutability": "view",
      "type": "function"
    },
    {
      "inputs": [
        {
          "internalType": "address",
          "name": "",
          "type": "address"
        }
      ],
      "name": "voterSignature",
      "outputs": [
        {
          "internalType": "string",
          "name": "",
          "type": "string"
        }
      ],
      "stateMutability": "view",
      "type": "function"
    },
    {
      "inputs": [
        {
          "internalType": "address",
          "name": "",
          "type": "address"
        }
      ],
      "name": "voters",
      "outputs": [
        {
          "internalType": "string",
          "name": "name",
          "type": "string"
        },
        {
          "internalType": "string",
          "name": "email",
          "type": "string"
        },
        {
          "internalType": "string",
          "name": "signature",
          "type": "string"
        },
        {
          "internalType": "address",
          "name": "account",
          "type": "address"
        }
      ],
      "stateMutability": "view",
      "type": "function"
    },
    {
      "inputs": [
        {
          "internalType": "string",
          "name": "_name",
          "type": "string"
        },
        {
          "internalType": "string",
          "name": "_email",
          "type": "string"
        },
        {
          "internalType": "bytes32",
          "name": "hashMsg",
          "type": "bytes32"
        },
        {
          "internalType": "bytes",
          "name": "signature",
          "type": "bytes"
        },
        {
          "internalType": "string",
          "name": "stringSign",
          "type": "string"
        }
      ],
      "name": "createVoter",
      "outputs": [],
      "stateMutability": "nonpayable",
      "type": "function"
    },
    {
      "inputs": [
        {
          "internalType": "string",
          "name": "_name",
          "type": "string"
        },
        {
          "internalType": "string",
          "name": "_email",
          "type": "string"
        }
      ],
      "name": "editVoter",
      "outputs": [],
      "stateMutability": "nonpayable",
      "type": "function"
    },
    {
      "inputs": [
        {
          "internalType": "address",
          "name": "_voter",
          "type": "address"
        },
        {
          "internalType": "uint256",
          "name": "id",
          "type": "uint256"
        }
      ],
      "name": "setIsVoted",
      "outputs": [],
      "stateMutability": "nonpayable",
      "type": "function"
    },
    {
      "inputs": [
        {
          "internalType": "uint256",
          "name": "id",
          "type": "uint256"
        },
        {
          "internalType": "address",
          "name": "addr",
          "type": "address"
        }
      ],
      "name": "setCanVote",
      "outputs": [],
      "stateMutability": "nonpayable",
      "type": "function"
    },
    {
      "inputs": [
        {
          "internalType": "bytes32",
          "name": "hashMsg",
          "type": "bytes32"
        },
        {
          "internalType": "bytes",
          "name": "signature",
          "type": "bytes"
        }
      ],
      "name": "verifySignature",
      "outputs": [
        {
          "internalType": "address",
          "name": "",
          "type": "address"
        }
      ],
      "stateMutability": "nonpayable",
      "type": "function"
    }
  ],
  "bytecode": "0x6080604052600060075534801561001557600080fd5b50336000806101000a81548173ffffffffffffffffffffffffffffffffffffffff021916908373ffffffffffffffffffffffffffffffffffffffff1602179055506120e2806100656000396000f3fe608060405234801561001057600080fd5b50600436106100cf5760003560e01c80638ee36f051161008c578063daca6f7811610066578063daca6f7814610239578063ebefe09a14610269578063eff0d8c614610285578063f851a440146102b5576100cf565b80638ee36f05146101ba578063a3ec138d146101ea578063a71aefad1461021d576100cf565b8063120933c0146100d457806319eb8d48146100f057806322fdef941461012057806342169e48146101505780635d55f2de1461016e5780636188349a1461019e575b600080fd5b6100ee60048036038101906100e99190611607565b6102d3565b005b61010a60048036038101906101059190611647565b610398565b60405161011791906116a2565b60405180910390f35b61013a600480360381019061013591906116bd565b6103c7565b60405161014791906116a2565b60405180910390f35b6101586103e7565b60405161016591906116f9565b60405180910390f35b61018860048036038101906101839190611714565b6103ed565b6040516101959190611750565b60405180910390f35b6101b860048036038101906101b391906117d0565b610420565b005b6101d460048036038101906101cf9190611647565b6109fd565b6040516101e191906116a2565b60405180910390f35b61020460048036038101906101ff91906116bd565b610a2c565b60405161021494939291906118ea565b60405180910390f35b610237600480360381019061023291906119d0565b610c14565b005b610253600480360381019061024e9190611bfc565b611206565b6040516102609190611750565b60405180910390f35b610283600480360381019061027e9190611647565b611305565b005b61029f600480360381019061029a91906116bd565b611372565b6040516102ac9190611c58565b60405180910390f35b6102bd611412565b6040516102ca9190611750565b60405180910390f35b60008054906101000a900473ffffffffffffffffffffffffffffffffffffffff1673ffffffffffffffffffffffffffffffffffffffff163273ffffffffffffffffffffffffffffffffffffffff161461032b57600080fd5b6001600560008373ffffffffffffffffffffffffffffffffffffffff1673ffffffffffffffffffffffffffffffffffffffff168152602001908152602001600020600084815260200190815260200160002060006101000a81548160ff0219169083151502179055505050565b60056020528160005260406000206020528060005260406000206000915091509054906101000a900460ff1681565b60016020528060005260406000206000915054906101000a900460ff1681565b60075481565b60036020528060005260406000206000915054906101000a900473ffffffffffffffffffffffffffffffffffffffff1681565b83838080601f016020809104026020016040519081016040528093929190818152602001838380828437600081840152601f19601f8201169050808301925050505050505082828080601f016020809104026020016040519081016040528093929190818152602001838380828437600081840152601f19601f820116905080830192505050505050506040516020016104b990611cab565b60405160208183030381529060405280519060200120826040516020016104e09190611cf1565b6040516020818303038152906040528051906020012003610536576040517f08c379a000000000000000000000000000000000000000000000000000000000815260040161052d90611d54565b60405180910390fd5b60405160200161054590611cab565b604051602081830303815290604052805190602001208160405160200161056c9190611cf1565b60405160208183030381529060405280519060200120036105c2576040517f08c379a00000000000000000000000000000000000000000000000000000000081526004016105b990611d54565b60405180910390fd5b60011515600160003373ffffffffffffffffffffffffffffffffffffffff1673ffffffffffffffffffffffffffffffffffffffff16815260200190815260200160002060009054906101000a900460ff1615151461061f57600080fd5b6000600260003373ffffffffffffffffffffffffffffffffffffffff1673ffffffffffffffffffffffffffffffffffffffff16815260200190815260200160002060405180608001604052908160008201805461067b90611da3565b80601f01602080910402602001604051908101604052809291908181526020018280546106a790611da3565b80156106f45780601f106106c9576101008083540402835291602001916106f4565b820191906000526020600020905b8154815290600101906020018083116106d757829003601f168201915b5050505050815260200160018201805461070d90611da3565b80601f016020809104026020016040519081016040528092919081815260200182805461073990611da3565b80156107865780601f1061075b57610100808354040283529160200191610786565b820191906000526020600020905b81548152906001019060200180831161076957829003601f168201915b5050505050815260200160028201805461079f90611da3565b80601f01602080910402602001604051908101604052809291908181526020018280546107cb90611da3565b80156108185780601f106107ed57610100808354040283529160200191610818565b820191906000526020600020905b8154815290600101906020018083116107fb57829003601f168201915b505050505081526020016003820160009054906101000a900473ffffffffffffffffffffffffffffffffffffffff1673ffffffffffffffffffffffffffffffffffffffff1673ffffffffffffffffffffffffffffffffffffffff1681525050905086868080601f016020809104026020016040519081016040528093929190818152602001838380828437600081840152601f19601f82011690508083019250505050505050816000018190525084848080601f016020809104026020016040519081016040528093929190818152602001838380828437600081840152601f19601f82011690508083019250505050505050816020018190525080600260003373ffffffffffffffffffffffffffffffffffffffff1673ffffffffffffffffffffffffffffffffffffffff168152602001908152602001600020600082015181600001908051906020019061096f929190611436565b50602082015181600101908051906020019061098c929190611436565b5060408201518160020190805190602001906109a9929190611436565b5060608201518160030160006101000a81548173ffffffffffffffffffffffffffffffffffffffff021916908373ffffffffffffffffffffffffffffffffffffffff16021790555090505050505050505050565b60066020528160005260406000206020528060005260406000206000915091509054906101000a900460ff1681565b6002602052806000526040600020600091509050806000018054610a4f90611da3565b80601f0160208091040260200160405190810160405280929190818152602001828054610a7b90611da3565b8015610ac85780601f10610a9d57610100808354040283529160200191610ac8565b820191906000526020600020905b815481529060010190602001808311610aab57829003601f168201915b505050505090806001018054610add90611da3565b80601f0160208091040260200160405190810160405280929190818152602001828054610b0990611da3565b8015610b565780601f10610b2b57610100808354040283529160200191610b56565b820191906000526020600020905b815481529060010190602001808311610b3957829003601f168201915b505050505090806002018054610b6b90611da3565b80601f0160208091040260200160405190810160405280929190818152602001828054610b9790611da3565b8015610be45780601f10610bb957610100808354040283529160200191610be4565b820191906000526020600020905b815481529060010190602001808311610bc757829003601f168201915b5050505050908060030160009054906101000a900473ffffffffffffffffffffffffffffffffffffffff16905084565b88888080601f016020809104026020016040519081016040528093929190818152602001838380828437600081840152601f19601f8201169050808301925050505050505087878080601f016020809104026020016040519081016040528093929190818152602001838380828437600081840152601f19601f82011690508083019250505050505050604051602001610cad90611cab565b6040516020818303038152906040528051906020012082604051602001610cd49190611cf1565b6040516020818303038152906040528051906020012003610d2a576040517f08c379a0000000000000000000000000000000000000000000000000000000008152600401610d2190611d54565b60405180910390fd5b604051602001610d3990611cab565b6040516020818303038152906040528051906020012081604051602001610d609190611cf1565b6040516020818303038152906040528051906020012003610db6576040517f08c379a0000000000000000000000000000000000000000000000000000000008152600401610dad90611d54565b60405180910390fd5b60001515600160003373ffffffffffffffffffffffffffffffffffffffff1673ffffffffffffffffffffffffffffffffffffffff16815260200190815260200160002060009054906101000a900460ff16151514610e49576040517f08c379a0000000000000000000000000000000000000000000000000000000008152600401610e4090611e20565b60405180910390fd5b3373ffffffffffffffffffffffffffffffffffffffff16610eae8888888080601f016020809104026020016040519081016040528093929190818152602001838380828437600081840152601f19601f82011690508083019250505050505050611206565b73ffffffffffffffffffffffffffffffffffffffff1614610f04576040517f08c379a0000000000000000000000000000000000000000000000000000000008152600401610efb90611eb2565b60405180910390fd5b60405180608001604052808c8c8080601f016020809104026020016040519081016040528093929190818152602001838380828437600081840152601f19601f8201169050808301925050505050505081526020018a8a8080601f016020809104026020016040519081016040528093929190818152602001838380828437600081840152601f19601f82011690508083019250505050505050815260200185858080601f016020809104026020016040519081016040528093929190818152602001838380828437600081840152601f19601f8201169050808301925050505050505081526020013373ffffffffffffffffffffffffffffffffffffffff16815250600260003373ffffffffffffffffffffffffffffffffffffffff1673ffffffffffffffffffffffffffffffffffffffff1681526020019081526020016000206000820151816000019080519060200190611062929190611436565b50602082015181600101908051906020019061107f929190611436565b50604082015181600201908051906020019061109c929190611436565b5060608201518160030160006101000a81548173ffffffffffffffffffffffffffffffffffffffff021916908373ffffffffffffffffffffffffffffffffffffffff1602179055509050508383600460003373ffffffffffffffffffffffffffffffffffffffff1673ffffffffffffffffffffffffffffffffffffffff16815260200190815260200160002091906111359291906114bc565b5060018060003373ffffffffffffffffffffffffffffffffffffffff1673ffffffffffffffffffffffffffffffffffffffff16815260200190815260200160002060006101000a81548160ff0219169083151502179055503360036000600754815260200190815260200160002060006101000a81548173ffffffffffffffffffffffffffffffffffffffff021916908373ffffffffffffffffffffffffffffffffffffffff160217905550600760008154809291906111f490611f01565b91905055505050505050505050505050565b6000808360405160200161121a9190611fb6565b6040516020818303038152906040528051906020012090506000806000602086015191506040860151905060ff6041870151169250601b8360ff16101561126b57601b836112689190611fe9565b92505b600060018585858560405160008152602001604052604051611290949392919061203e565b6020604051602081039080840390855afa1580156112b2573d6000803e3d6000fd5b5050506020604051035190507f315df325f6e7002fa07b5325404b7ecd1ea2307fbb1a99035e62c7e0caff686e88826040516112ef929190612083565b60405180910390a1809550505050505092915050565b6001600660008473ffffffffffffffffffffffffffffffffffffffff1673ffffffffffffffffffffffffffffffffffffffff168152602001908152602001600020600083815260200190815260200160002060006101000a81548160ff0219169083151502179055505050565b6004602052806000526040600020600091509050805461139190611da3565b80601f01602080910402602001604051908101604052809291908181526020018280546113bd90611da3565b801561140a5780601f106113df5761010080835404028352916020019161140a565b820191906000526020600020905b8154815290600101906020018083116113ed57829003601f168201915b505050505081565b60008054906101000a900473ffffffffffffffffffffffffffffffffffffffff1681565b82805461144290611da3565b90600052602060002090601f01602090048101928261146457600085556114ab565b82601f1061147d57805160ff19168380011785556114ab565b828001600101855582156114ab579182015b828111156114aa57825182559160200191906001019061148f565b5b5090506114b89190611542565b5090565b8280546114c890611da3565b90600052602060002090601f0160209004810192826114ea5760008555611531565b82601f1061150357803560ff1916838001178555611531565b82800160010185558215611531579182015b82811115611530578235825591602001919060010190611515565b5b50905061153e9190611542565b5090565b5b8082111561155b576000816000905550600101611543565b5090565b6000604051905090565b600080fd5b600080fd5b6000819050919050565b61158681611573565b811461159157600080fd5b50565b6000813590506115a38161157d565b92915050565b600073ffffffffffffffffffffffffffffffffffffffff82169050919050565b60006115d4826115a9565b9050919050565b6115e4816115c9565b81146115ef57600080fd5b50565b600081359050611601816115db565b92915050565b6000806040838503121561161e5761161d611569565b5b600061162c85828601611594565b925050602061163d858286016115f2565b9150509250929050565b6000806040838503121561165e5761165d611569565b5b600061166c858286016115f2565b925050602061167d85828601611594565b9150509250929050565b60008115159050919050565b61169c81611687565b82525050565b60006020820190506116b76000830184611693565b92915050565b6000602082840312156116d3576116d2611569565b5b60006116e1848285016115f2565b91505092915050565b6116f381611573565b82525050565b600060208201905061170e60008301846116ea565b92915050565b60006020828403121561172a57611729611569565b5b600061173884828501611594565b91505092915050565b61174a816115c9565b82525050565b60006020820190506117656000830184611741565b92915050565b600080fd5b600080fd5b600080fd5b60008083601f8401126117905761178f61176b565b5b8235905067ffffffffffffffff8111156117ad576117ac611770565b5b6020830191508360018202830111156117c9576117c8611775565b5b9250929050565b600080600080604085870312156117ea576117e9611569565b5b600085013567ffffffffffffffff8111156118085761180761156e565b5b6118148782880161177a565b9450945050602085013567ffffffffffffffff8111156118375761183661156e565b5b6118438782880161177a565b925092505092959194509250565b600081519050919050565b600082825260208201905092915050565b60005b8381101561188b578082015181840152602081019050611870565b8381111561189a576000848401525b50505050565b6000601f19601f8301169050919050565b60006118bc82611851565b6118c6818561185c565b93506118d681856020860161186d565b6118df816118a0565b840191505092915050565b6000608082019050818103600083015261190481876118b1565b9050818103602083015261191881866118b1565b9050818103604083015261192c81856118b1565b905061193b6060830184611741565b95945050505050565b6000819050919050565b61195781611944565b811461196257600080fd5b50565b6000813590506119748161194e565b92915050565b60008083601f8401126119905761198f61176b565b5b8235905067ffffffffffffffff8111156119ad576119ac611770565b5b6020830191508360018202830111156119c9576119c8611775565b5b9250929050565b600080600080600080600080600060a08a8c0312156119f2576119f1611569565b5b60008a013567ffffffffffffffff811115611a1057611a0f61156e565b5b611a1c8c828d0161177a565b995099505060208a013567ffffffffffffffff811115611a3f57611a3e61156e565b5b611a4b8c828d0161177a565b97509750506040611a5e8c828d01611965565b95505060608a013567ffffffffffffffff811115611a7f57611a7e61156e565b5b611a8b8c828d0161197a565b945094505060808a013567ffffffffffffffff811115611aae57611aad61156e565b5b611aba8c828d0161177a565b92509250509295985092959850929598565b600080fd5b7f4e487b7100000000000000000000000000000000000000000000000000000000600052604160045260246000fd5b611b09826118a0565b810181811067ffffffffffffffff82111715611b2857611b27611ad1565b5b80604052505050565b6000611b3b61155f565b9050611b478282611b00565b919050565b600067ffffffffffffffff821115611b6757611b66611ad1565b5b611b70826118a0565b9050602081019050919050565b82818337600083830152505050565b6000611b9f611b9a84611b4c565b611b31565b905082815260208101848484011115611bbb57611bba611acc565b5b611bc6848285611b7d565b509392505050565b600082601f830112611be357611be261176b565b5b8135611bf3848260208601611b8c565b91505092915050565b60008060408385031215611c1357611c12611569565b5b6000611c2185828601611965565b925050602083013567ffffffffffffffff811115611c4257611c4161156e565b5b611c4e85828601611bce565b9150509250929050565b60006020820190508181036000830152611c7281846118b1565b905092915050565b600081905092915050565b50565b6000611c95600083611c7a565b9150611ca082611c85565b600082019050919050565b6000611cb682611c88565b9150819050919050565b6000611ccb82611851565b611cd58185611c7a565b9350611ce581856020860161186d565b80840191505092915050565b6000611cfd8284611cc0565b915081905092915050565b7f43616e6e6f7420626520656d70747920496e666f726d6174696f6e0000000000600082015250565b6000611d3e601b8361185c565b9150611d4982611d08565b602082019050919050565b60006020820190508181036000830152611d6d81611d31565b9050919050565b7f4e487b7100000000000000000000000000000000000000000000000000000000600052602260045260246000fd5b60006002820490506001821680611dbb57607f821691505b602082108103611dce57611dcd611d74565b5b50919050565b7f566f746572207265676973746572656420616c72656164792e00000000000000600082015250565b6000611e0a60198361185c565b9150611e1582611dd4565b602082019050919050565b60006020820190508181036000830152611e3981611dfd565b9050919050565b7f5468697320766f7465722773207369676e6174757265206973206e6f7420766560008201527f7269666965640000000000000000000000000000000000000000000000000000602082015250565b6000611e9c60268361185c565b9150611ea782611e40565b604082019050919050565b60006020820190508181036000830152611ecb81611e8f565b9050919050565b7f4e487b7100000000000000000000000000000000000000000000000000000000600052601160045260246000fd5b6000611f0c82611573565b91507fffffffffffffffffffffffffffffffffffffffffffffffffffffffffffffffff8203611f3e57611f3d611ed2565b5b600182019050919050565b7f19457468657265756d205369676e6564204d6573736167653a0a333200000000600082015250565b6000611f7f601c83611c7a565b9150611f8a82611f49565b601c82019050919050565b6000819050919050565b611fb0611fab82611944565b611f95565b82525050565b6000611fc182611f72565b9150611fcd8284611f9f565b60208201915081905092915050565b600060ff82169050919050565b6000611ff482611fdc565b9150611fff83611fdc565b92508260ff0382111561201557612014611ed2565b5b828201905092915050565b61202981611944565b82525050565b61203881611fdc565b82525050565b60006080820190506120536000830187612020565b612060602083018661202f565b61206d6040830185612020565b61207a6060830184612020565b95945050505050565b60006040820190506120986000830185612020565b6120a56020830184611741565b939250505056fea2646970667358221220d952a8285d6ed92d001c12fec3ecda2557f8ad94ee7628c3b0837c53ef1a3f7d64736f6c634300080d0033",
  "immutableReferences": {},
  "source": "// SPDX-License-Identifier: MIT\r\npragma solidity >=0.6.6 <0.9.0;\r\n\r\ncontract Voters {\r\n    address public admin;\r\n    struct Voter {\r\n        string name;\r\n        string email;\r\n        string signature;\r\n        address account;\r\n    }\r\n\r\n    // default to false, when registered, set can turn to login status directly\r\n    mapping(address => bool) public isRegister;\r\n\r\n    // the login address => the Voter struct info\r\n    mapping(address => Voter) public voters;\r\n\r\n    // voter id => voters address, when want to load all voters\r\n    mapping(uint256 => address) public voterAddress;\r\n\r\n    // voter address and their signature, set at verifySignature()\r\n    mapping(address => string) public voterSignature;\r\n\r\n    // check if this voter, at this election, has right to vote\r\n    mapping(address => mapping(uint256 => bool)) public canVote;\r\n\r\n    // check if this voter, at this election, vote or not\r\n    mapping(address => mapping(uint256 => bool)) public isVoted;\r\n\r\n    // total voter\r\n    uint256 public voterCount = 0;\r\n\r\n    // use to ensure parameter is not empty\r\n    modifier notEmpty(string memory _name, string memory _email) {\r\n        require(\r\n            keccak256(abi.encodePacked(_name)) !=\r\n                keccak256(abi.encodePacked(\"\")),\r\n            \"Cannot be empty Information\"\r\n        );\r\n        require(\r\n            keccak256(abi.encodePacked(_email)) !=\r\n                keccak256(abi.encodePacked(\"\")),\r\n            \"Cannot be empty Information\"\r\n        );\r\n        _;\r\n    }\r\n\r\n    constructor() public {\r\n        admin = msg.sender;\r\n    }\r\n\r\n    event verifySigner(bytes32 message, address signer);\r\n\r\n    /**\r\n        createVoter creates a new voter\r\n        :param _name: voter's name\r\n        :param _email: voter's email\r\n        :hashMsg, signature, string sign: use at verifySignature()\r\n     */\r\n    function createVoter(\r\n        string calldata _name,\r\n        string calldata _email,\r\n        bytes32 hashMsg,\r\n        bytes calldata signature,\r\n        string calldata stringSign\r\n    ) external notEmpty(_name, _email) {\r\n        require(isRegister[msg.sender] == false, \"Voter registered already.\");\r\n        require(\r\n            verifySignature(hashMsg, signature) == msg.sender,\r\n            \"This voter's signature is not verified\"\r\n        );\r\n        voters[msg.sender] = Voter(_name, _email, stringSign, msg.sender);\r\n        voterSignature[msg.sender] = stringSign;\r\n        isRegister[msg.sender] = true;\r\n        voterAddress[voterCount] = msg.sender;\r\n        voterCount++;\r\n    }\r\n\r\n    /**\r\n        editVoter edit the exist voter\r\n        :param _name: voter's name\r\n        :param _email: voter's email\r\n     */\r\n    function editVoter(string calldata _name, string calldata _email)\r\n        external\r\n        notEmpty(_name, _email)\r\n    {\r\n        require(isRegister[msg.sender] == true);\r\n        Voter memory voter = voters[msg.sender];\r\n        voter.name = _name;\r\n        voter.email = _email;\r\n        voters[msg.sender] = voter;\r\n    }\r\n\r\n    function setIsVoted(address _voter, uint256 id) public {\r\n        isVoted[_voter][id] = true;\r\n    }\r\n\r\n    function setCanVote(uint256 id, address addr) public {\r\n        require(tx.origin == admin);\r\n        canVote[addr][id] = true;\r\n    }\r\n\r\n    /**\r\n     * hashMsg - the hashed message that a voter sign\r\n     * byte signature - use to split to r, s and v\r\n     * stringSign - when it is verified, store the signature\r\n     */\r\n    function verifySignature(bytes32 hashMsg, bytes memory signature)\r\n        public\r\n        returns (address)\r\n    {\r\n        bytes32 signedHash = keccak256(\r\n            abi.encodePacked(\"\\x19Ethereum Signed Message:\\n32\", hashMsg)\r\n        );\r\n        uint8 v;\r\n        bytes32 r;\r\n        bytes32 s;\r\n\r\n        assembly {\r\n            r := mload(add(signature, 32))\r\n            s := mload(add(signature, 64))\r\n            v := and(mload(add(signature, 65)), 255)\r\n        }\r\n        if (v < 27) v += 27;\r\n\r\n        address signer = ecrecover(signedHash, v, r, s);\r\n        emit verifySigner(hashMsg, signer);\r\n        return signer;\r\n    }\r\n}\r\n",
  "sourcePath": "D:\\MMU\\Degree\\Third_Year\\Final Year Project\\Phase_2\\FYP_EVotingBlockchain\\contracts\\Voters.sol",
  "compiler": {
    "name": "solc",
    "version": "0.8.13+commit.abaa5c0e.Emscripten.clang"
  },
  "schemaVersion": "3.4.3",
  "updatedAt": "2022-03-22T08:40:57.166Z",
  "devdoc": {
    "kind": "dev",
    "methods": {},
    "version": 1
  },
  "userdoc": {
    "kind": "user",
    "methods": {
      "createVoter(string,string,bytes32,bytes,string)": {
        "notice": "createVoter creates a new voter :param _name: voter's name :param _email: voter's email :hashMsg, signature, string sign: use at verifySignature()"
      },
      "editVoter(string,string)": {
        "notice": "editVoter edit the exist voter :param _name: voter's name :param _email: voter's email"
      },
      "verifySignature(bytes32,bytes)": {
        "notice": "hashMsg - the hashed message that a voter sign byte signature - use to split to r, s and v stringSign - when it is verified, store the signature"
      }
    },
    "version": 1
  }
}