{
  "contractName": "Voters",
  "abi": [
    {
      "inputs": [],
      "stateMutability": "nonpayable",
      "type": "constructor"
    },
    {
      "anonymous": false,
      "inputs": [
        {
          "indexed": false,
          "internalType": "bytes32",
          "name": "message",
          "type": "bytes32"
        },
        {
          "indexed": false,
          "internalType": "address",
          "name": "signer",
          "type": "address"
        }
      ],
      "name": "verifySigner",
      "type": "event"
    },
    {
      "inputs": [],
      "name": "admin",
      "outputs": [
        {
          "internalType": "address",
          "name": "",
          "type": "address"
        }
      ],
      "stateMutability": "view",
      "type": "function",
      "constant": true
    },
    {
      "inputs": [
        {
          "internalType": "address",
          "name": "",
          "type": "address"
        },
        {
          "internalType": "uint256",
          "name": "",
          "type": "uint256"
        }
      ],
      "name": "canVote",
      "outputs": [
        {
          "internalType": "bool",
          "name": "",
          "type": "bool"
        }
      ],
      "stateMutability": "view",
      "type": "function",
      "constant": true
    },
    {
      "inputs": [
        {
          "internalType": "address",
          "name": "",
          "type": "address"
        }
      ],
      "name": "isRegister",
      "outputs": [
        {
          "internalType": "bool",
          "name": "",
          "type": "bool"
        }
      ],
      "stateMutability": "view",
      "type": "function",
      "constant": true
    },
    {
      "inputs": [
        {
          "internalType": "address",
          "name": "",
          "type": "address"
        },
        {
          "internalType": "uint256",
          "name": "",
          "type": "uint256"
        }
      ],
      "name": "isVoted",
      "outputs": [
        {
          "internalType": "bool",
          "name": "",
          "type": "bool"
        }
      ],
      "stateMutability": "view",
      "type": "function",
      "constant": true
    },
    {
      "inputs": [
        {
          "internalType": "uint256",
          "name": "",
          "type": "uint256"
        }
      ],
      "name": "voterAddress",
      "outputs": [
        {
          "internalType": "address",
          "name": "",
          "type": "address"
        }
      ],
      "stateMutability": "view",
      "type": "function",
      "constant": true
    },
    {
      "inputs": [],
      "name": "voterCount",
      "outputs": [
        {
          "internalType": "uint256",
          "name": "",
          "type": "uint256"
        }
      ],
      "stateMutability": "view",
      "type": "function",
      "constant": true
    },
    {
      "inputs": [
        {
          "internalType": "address",
          "name": "",
          "type": "address"
        }
      ],
      "name": "voterSignature",
      "outputs": [
        {
          "internalType": "string",
          "name": "",
          "type": "string"
        }
      ],
      "stateMutability": "view",
      "type": "function",
      "constant": true
    },
    {
      "inputs": [
        {
          "internalType": "address",
          "name": "",
          "type": "address"
        }
      ],
      "name": "voters",
      "outputs": [
        {
          "internalType": "string",
          "name": "name",
          "type": "string"
        },
        {
          "internalType": "string",
          "name": "email",
          "type": "string"
        },
        {
          "internalType": "string",
          "name": "signature",
          "type": "string"
        },
        {
          "internalType": "address",
          "name": "account",
          "type": "address"
        }
      ],
      "stateMutability": "view",
      "type": "function",
      "constant": true
    },
    {
      "inputs": [
        {
          "internalType": "string",
          "name": "_name",
          "type": "string"
        },
        {
          "internalType": "string",
          "name": "_email",
          "type": "string"
        },
        {
          "internalType": "bytes32",
          "name": "hashMsg",
          "type": "bytes32"
        },
        {
          "internalType": "bytes",
          "name": "signature",
          "type": "bytes"
        },
        {
          "internalType": "string",
          "name": "stringSign",
          "type": "string"
        }
      ],
      "name": "createVoter",
      "outputs": [],
      "stateMutability": "nonpayable",
      "type": "function"
    },
    {
      "inputs": [
        {
          "internalType": "string",
          "name": "_name",
          "type": "string"
        },
        {
          "internalType": "string",
          "name": "_email",
          "type": "string"
        }
      ],
      "name": "editVoter",
      "outputs": [],
      "stateMutability": "nonpayable",
      "type": "function"
    },
    {
      "inputs": [
        {
          "internalType": "address",
          "name": "_voter",
          "type": "address"
        },
        {
          "internalType": "uint256",
          "name": "id",
          "type": "uint256"
        }
      ],
      "name": "setIsVoted",
      "outputs": [],
      "stateMutability": "nonpayable",
      "type": "function"
    },
    {
      "inputs": [
        {
          "internalType": "uint256",
          "name": "id",
          "type": "uint256"
        },
        {
          "internalType": "address",
          "name": "addr",
          "type": "address"
        }
      ],
      "name": "setCanVote",
      "outputs": [],
      "stateMutability": "nonpayable",
      "type": "function"
    },
    {
      "inputs": [
        {
          "internalType": "bytes32",
          "name": "hashMsg",
          "type": "bytes32"
        },
        {
          "internalType": "bytes",
          "name": "signature",
          "type": "bytes"
        },
        {
          "internalType": "string",
          "name": "stringSign",
          "type": "string"
        }
      ],
      "name": "verifySignature",
      "outputs": [
        {
          "internalType": "address",
          "name": "",
          "type": "address"
        }
      ],
      "stateMutability": "nonpayable",
      "type": "function"
    }
  ],
  "bytecode": "0x6080604052600060075534801561001557600080fd5b50336000806101000a81548173ffffffffffffffffffffffffffffffffffffffff021916908373ffffffffffffffffffffffffffffffffffffffff1602179055506122b9806100656000396000f3fe608060405234801561001057600080fd5b50600436106100cf5760003560e01c80636188349a1161008c578063a71aefad11610066578063a71aefad1461024d578063ebefe09a14610269578063eff0d8c614610285578063f851a440146102b5576100cf565b80636188349a146101ce5780638ee36f05146101ea578063a3ec138d1461021a576100cf565b8063120933c0146100d457806319eb8d48146100f057806322fdef941461012057806342169e481461015057806349cb10fb1461016e5780635d55f2de1461019e575b600080fd5b6100ee60048036038101906100e9919061167a565b6102d3565b005b61010a600480360381019061010591906116ba565b610398565b6040516101179190611715565b60405180910390f35b61013a60048036038101906101359190611730565b6103c7565b6040516101479190611715565b60405180910390f35b6101586103e7565b604051610165919061176c565b60405180910390f35b610188600480360381019061018391906119a4565b6103ed565b6040516101959190611a3e565b60405180910390f35b6101b860048036038101906101b39190611a59565b610579565b6040516101c59190611a3e565b60405180910390f35b6101e860048036038101906101e39190611ae6565b6105ac565b005b61020460048036038101906101ff91906116ba565b610bfd565b6040516102119190611715565b60405180910390f35b610234600480360381019061022f9190611730565b610c2c565b6040516102449493929190611bef565b60405180910390f35b61026760048036038101906102629190611c9f565b610e14565b005b610283600480360381019061027e91906116ba565b6113fe565b005b61029f600480360381019061029a9190611730565b61146b565b6040516102ac9190611d9b565b60405180910390f35b6102bd61150b565b6040516102ca9190611a3e565b60405180910390f35b60008054906101000a900473ffffffffffffffffffffffffffffffffffffffff1673ffffffffffffffffffffffffffffffffffffffff163273ffffffffffffffffffffffffffffffffffffffff161461032b57600080fd5b6001600560008373ffffffffffffffffffffffffffffffffffffffff1673ffffffffffffffffffffffffffffffffffffffff168152602001908152602001600020600084815260200190815260200160002060006101000a81548160ff0219169083151502179055505050565b60056020528160005260406000206020528060005260406000206000915091509054906101000a900460ff1681565b60016020528060005260406000206000915054906101000a900460ff1681565b60075481565b600080846040516020016104019190611e35565b6040516020818303038152906040528051906020012090506000806000602087015191506040870151905060ff6041880151169250601b8360ff16101561045257601b8361044f9190611e97565b92505b6000600185858585604051600081526020016040526040516104779493929190611eec565b6020604051602081039080840390855afa158015610499573d6000803e3d6000fd5b5050506020604051035190503373ffffffffffffffffffffffffffffffffffffffff168173ffffffffffffffffffffffffffffffffffffffff16146104dd57600080fd5b7f315df325f6e7002fa07b5325404b7ecd1ea2307fbb1a99035e62c7e0caff686e898260405161050e929190611f31565b60405180910390a186600460008373ffffffffffffffffffffffffffffffffffffffff1673ffffffffffffffffffffffffffffffffffffffff168152602001908152602001600020908051906020019061056992919061152f565b5080955050505050509392505050565b60036020528060005260406000206000915054906101000a900473ffffffffffffffffffffffffffffffffffffffff1681565b83838080601f016020809104026020016040519081016040528093929190818152602001838380828437600081840152601f19601f8201169050808301925050505050505082828080601f016020809104026020016040519081016040528093929190818152602001838380828437600081840152601f19601f8201169050808301925050505050505060405160200161064590611f80565b604051602081830303815290604052805190602001208260405160200161066c9190611fc6565b6040516020818303038152906040528051906020012014156106c3576040517f08c379a00000000000000000000000000000000000000000000000000000000081526004016106ba90612029565b60405180910390fd5b6040516020016106d290611f80565b60405160208183030381529060405280519060200120816040516020016106f99190611fc6565b604051602081830303815290604052805190602001201415610750576040517f08c379a000000000000000000000000000000000000000000000000000000000815260040161074790612029565b60405180910390fd5b60011515600160003373ffffffffffffffffffffffffffffffffffffffff1673ffffffffffffffffffffffffffffffffffffffff16815260200190815260200160002060009054906101000a900460ff161515146107ad57600080fd5b6000600260003373ffffffffffffffffffffffffffffffffffffffff1673ffffffffffffffffffffffffffffffffffffffff16815260200190815260200160002060405180608001604052908160008201805461080990612078565b80601f016020809104026020016040519081016040528092919081815260200182805461083590612078565b80156108825780601f1061085757610100808354040283529160200191610882565b820191906000526020600020905b81548152906001019060200180831161086557829003601f168201915b5050505050815260200160018201805461089b90612078565b80601f01602080910402602001604051908101604052809291908181526020018280546108c790612078565b80156109145780601f106108e957610100808354040283529160200191610914565b820191906000526020600020905b8154815290600101906020018083116108f757829003601f168201915b5050505050815260200160028201805461092d90612078565b80601f016020809104026020016040519081016040528092919081815260200182805461095990612078565b80156109a65780601f1061097b576101008083540402835291602001916109a6565b820191906000526020600020905b81548152906001019060200180831161098957829003601f168201915b505050505081526020016003820160009054906101000a900473ffffffffffffffffffffffffffffffffffffffff1673ffffffffffffffffffffffffffffffffffffffff1673ffffffffffffffffffffffffffffffffffffffff168152505090503373ffffffffffffffffffffffffffffffffffffffff16816060015173ffffffffffffffffffffffffffffffffffffffff1614610a79576040517f08c379a0000000000000000000000000000000000000000000000000000000008152600401610a709061211c565b60405180910390fd5b86868080601f016020809104026020016040519081016040528093929190818152602001838380828437600081840152601f19601f82011690508083019250505050505050816000018190525084848080601f016020809104026020016040519081016040528093929190818152602001838380828437600081840152601f19601f82011690508083019250505050505050816020018190525080600260003373ffffffffffffffffffffffffffffffffffffffff1673ffffffffffffffffffffffffffffffffffffffff1681526020019081526020016000206000820151816000019080519060200190610b6f92919061152f565b506020820151816001019080519060200190610b8c92919061152f565b506040820151816002019080519060200190610ba992919061152f565b5060608201518160030160006101000a81548173ffffffffffffffffffffffffffffffffffffffff021916908373ffffffffffffffffffffffffffffffffffffffff16021790555090505050505050505050565b60066020528160005260406000206020528060005260406000206000915091509054906101000a900460ff1681565b6002602052806000526040600020600091509050806000018054610c4f90612078565b80601f0160208091040260200160405190810160405280929190818152602001828054610c7b90612078565b8015610cc85780601f10610c9d57610100808354040283529160200191610cc8565b820191906000526020600020905b815481529060010190602001808311610cab57829003601f168201915b505050505090806001018054610cdd90612078565b80601f0160208091040260200160405190810160405280929190818152602001828054610d0990612078565b8015610d565780601f10610d2b57610100808354040283529160200191610d56565b820191906000526020600020905b815481529060010190602001808311610d3957829003601f168201915b505050505090806002018054610d6b90612078565b80601f0160208091040260200160405190810160405280929190818152602001828054610d9790612078565b8015610de45780601f10610db957610100808354040283529160200191610de4565b820191906000526020600020905b815481529060010190602001808311610dc757829003601f168201915b5050505050908060030160009054906101000a900473ffffffffffffffffffffffffffffffffffffffff16905084565b88888080601f016020809104026020016040519081016040528093929190818152602001838380828437600081840152601f19601f8201169050808301925050505050505087878080601f016020809104026020016040519081016040528093929190818152602001838380828437600081840152601f19601f82011690508083019250505050505050604051602001610ead90611f80565b6040516020818303038152906040528051906020012082604051602001610ed49190611fc6565b604051602081830303815290604052805190602001201415610f2b576040517f08c379a0000000000000000000000000000000000000000000000000000000008152600401610f2290612029565b60405180910390fd5b604051602001610f3a90611f80565b6040516020818303038152906040528051906020012081604051602001610f619190611fc6565b604051602081830303815290604052805190602001201415610fb8576040517f08c379a0000000000000000000000000000000000000000000000000000000008152600401610faf90612029565b60405180910390fd5b60001515600160003373ffffffffffffffffffffffffffffffffffffffff1673ffffffffffffffffffffffffffffffffffffffff16815260200190815260200160002060009054906101000a900460ff1615151461104b576040517f08c379a000000000000000000000000000000000000000000000000000000000815260040161104290612188565b60405180910390fd5b3373ffffffffffffffffffffffffffffffffffffffff166110f58888888080601f016020809104026020016040519081016040528093929190818152602001838380828437600081840152601f19601f8201169050808301925050505050505087878080601f016020809104026020016040519081016040528093929190818152602001838380828437600081840152601f19601f820116905080830192505050505050506103ed565b73ffffffffffffffffffffffffffffffffffffffff161461114b576040517f08c379a00000000000000000000000000000000000000000000000000000000081526004016111429061221a565b60405180910390fd5b60405180608001604052808c8c8080601f016020809104026020016040519081016040528093929190818152602001838380828437600081840152601f19601f8201169050808301925050505050505081526020018a8a8080601f016020809104026020016040519081016040528093929190818152602001838380828437600081840152601f19601f82011690508083019250505050505050815260200185858080601f016020809104026020016040519081016040528093929190818152602001838380828437600081840152601f19601f8201169050808301925050505050505081526020013373ffffffffffffffffffffffffffffffffffffffff16815250600260003373ffffffffffffffffffffffffffffffffffffffff1673ffffffffffffffffffffffffffffffffffffffff16815260200190815260200160002060008201518160000190805190602001906112a992919061152f565b5060208201518160010190805190602001906112c692919061152f565b5060408201518160020190805190602001906112e392919061152f565b5060608201518160030160006101000a81548173ffffffffffffffffffffffffffffffffffffffff021916908373ffffffffffffffffffffffffffffffffffffffff16021790555090505060018060003373ffffffffffffffffffffffffffffffffffffffff1673ffffffffffffffffffffffffffffffffffffffff16815260200190815260200160002060006101000a81548160ff0219169083151502179055503360036000600754815260200190815260200160002060006101000a81548173ffffffffffffffffffffffffffffffffffffffff021916908373ffffffffffffffffffffffffffffffffffffffff160217905550600760008154809291906113ec9061223a565b91905055505050505050505050505050565b6001600660008473ffffffffffffffffffffffffffffffffffffffff1673ffffffffffffffffffffffffffffffffffffffff168152602001908152602001600020600083815260200190815260200160002060006101000a81548160ff0219169083151502179055505050565b6004602052806000526040600020600091509050805461148a90612078565b80601f01602080910402602001604051908101604052809291908181526020018280546114b690612078565b80156115035780601f106114d857610100808354040283529160200191611503565b820191906000526020600020905b8154815290600101906020018083116114e657829003601f168201915b505050505081565b60008054906101000a900473ffffffffffffffffffffffffffffffffffffffff1681565b82805461153b90612078565b90600052602060002090601f01602090048101928261155d57600085556115a4565b82601f1061157657805160ff19168380011785556115a4565b828001600101855582156115a4579182015b828111156115a3578251825591602001919060010190611588565b5b5090506115b191906115b5565b5090565b5b808211156115ce5760008160009055506001016115b6565b5090565b6000604051905090565b600080fd5b600080fd5b6000819050919050565b6115f9816115e6565b811461160457600080fd5b50565b600081359050611616816115f0565b92915050565b600073ffffffffffffffffffffffffffffffffffffffff82169050919050565b60006116478261161c565b9050919050565b6116578161163c565b811461166257600080fd5b50565b6000813590506116748161164e565b92915050565b60008060408385031215611691576116906115dc565b5b600061169f85828601611607565b92505060206116b085828601611665565b9150509250929050565b600080604083850312156116d1576116d06115dc565b5b60006116df85828601611665565b92505060206116f085828601611607565b9150509250929050565b60008115159050919050565b61170f816116fa565b82525050565b600060208201905061172a6000830184611706565b92915050565b600060208284031215611746576117456115dc565b5b600061175484828501611665565b91505092915050565b611766816115e6565b82525050565b6000602082019050611781600083018461175d565b92915050565b6000819050919050565b61179a81611787565b81146117a557600080fd5b50565b6000813590506117b781611791565b92915050565b600080fd5b600080fd5b6000601f19601f8301169050919050565b7f4e487b7100000000000000000000000000000000000000000000000000000000600052604160045260246000fd5b611810826117c7565b810181811067ffffffffffffffff8211171561182f5761182e6117d8565b5b80604052505050565b60006118426115d2565b905061184e8282611807565b919050565b600067ffffffffffffffff82111561186e5761186d6117d8565b5b611877826117c7565b9050602081019050919050565b82818337600083830152505050565b60006118a66118a184611853565b611838565b9050828152602081018484840111156118c2576118c16117c2565b5b6118cd848285611884565b509392505050565b600082601f8301126118ea576118e96117bd565b5b81356118fa848260208601611893565b91505092915050565b600067ffffffffffffffff82111561191e5761191d6117d8565b5b611927826117c7565b9050602081019050919050565b600061194761194284611903565b611838565b905082815260208101848484011115611963576119626117c2565b5b61196e848285611884565b509392505050565b600082601f83011261198b5761198a6117bd565b5b813561199b848260208601611934565b91505092915050565b6000806000606084860312156119bd576119bc6115dc565b5b60006119cb868287016117a8565b935050602084013567ffffffffffffffff8111156119ec576119eb6115e1565b5b6119f8868287016118d5565b925050604084013567ffffffffffffffff811115611a1957611a186115e1565b5b611a2586828701611976565b9150509250925092565b611a388161163c565b82525050565b6000602082019050611a536000830184611a2f565b92915050565b600060208284031215611a6f57611a6e6115dc565b5b6000611a7d84828501611607565b91505092915050565b600080fd5b600080fd5b60008083601f840112611aa657611aa56117bd565b5b8235905067ffffffffffffffff811115611ac357611ac2611a86565b5b602083019150836001820283011115611adf57611ade611a8b565b5b9250929050565b60008060008060408587031215611b0057611aff6115dc565b5b600085013567ffffffffffffffff811115611b1e57611b1d6115e1565b5b611b2a87828801611a90565b9450945050602085013567ffffffffffffffff811115611b4d57611b4c6115e1565b5b611b5987828801611a90565b925092505092959194509250565b600081519050919050565b600082825260208201905092915050565b60005b83811015611ba1578082015181840152602081019050611b86565b83811115611bb0576000848401525b50505050565b6000611bc182611b67565b611bcb8185611b72565b9350611bdb818560208601611b83565b611be4816117c7565b840191505092915050565b60006080820190508181036000830152611c098187611bb6565b90508181036020830152611c1d8186611bb6565b90508181036040830152611c318185611bb6565b9050611c406060830184611a2f565b95945050505050565b60008083601f840112611c5f57611c5e6117bd565b5b8235905067ffffffffffffffff811115611c7c57611c7b611a86565b5b602083019150836001820283011115611c9857611c97611a8b565b5b9250929050565b600080600080600080600080600060a08a8c031215611cc157611cc06115dc565b5b60008a013567ffffffffffffffff811115611cdf57611cde6115e1565b5b611ceb8c828d01611a90565b995099505060208a013567ffffffffffffffff811115611d0e57611d0d6115e1565b5b611d1a8c828d01611a90565b97509750506040611d2d8c828d016117a8565b95505060608a013567ffffffffffffffff811115611d4e57611d4d6115e1565b5b611d5a8c828d01611c49565b945094505060808a013567ffffffffffffffff811115611d7d57611d7c6115e1565b5b611d898c828d01611a90565b92509250509295985092959850929598565b60006020820190508181036000830152611db58184611bb6565b905092915050565b600081905092915050565b7f19457468657265756d205369676e6564204d6573736167653a0a333200000000600082015250565b6000611dfe601c83611dbd565b9150611e0982611dc8565b601c82019050919050565b6000819050919050565b611e2f611e2a82611787565b611e14565b82525050565b6000611e4082611df1565b9150611e4c8284611e1e565b60208201915081905092915050565b600060ff82169050919050565b7f4e487b7100000000000000000000000000000000000000000000000000000000600052601160045260246000fd5b6000611ea282611e5b565b9150611ead83611e5b565b92508260ff03821115611ec357611ec2611e68565b5b828201905092915050565b611ed781611787565b82525050565b611ee681611e5b565b82525050565b6000608082019050611f016000830187611ece565b611f0e6020830186611edd565b611f1b6040830185611ece565b611f286060830184611ece565b95945050505050565b6000604082019050611f466000830185611ece565b611f536020830184611a2f565b9392505050565b50565b6000611f6a600083611dbd565b9150611f7582611f5a565b600082019050919050565b6000611f8b82611f5d565b9150819050919050565b6000611fa082611b67565b611faa8185611dbd565b9350611fba818560208601611b83565b80840191505092915050565b6000611fd28284611f95565b915081905092915050565b7f43616e6e6f7420626520656d70747920496e666f726d6174696f6e0000000000600082015250565b6000612013601b83611b72565b915061201e82611fdd565b602082019050919050565b6000602082019050818103600083015261204281612006565b9050919050565b7f4e487b7100000000000000000000000000000000000000000000000000000000600052602260045260246000fd5b6000600282049050600182168061209057607f821691505b602082108114156120a4576120a3612049565b5b50919050565b7f4f6e6c7920746865206f776e65722063616e2065646974207468656972206f7760008201527f6e2070726f66696c650000000000000000000000000000000000000000000000602082015250565b6000612106602983611b72565b9150612111826120aa565b604082019050919050565b60006020820190508181036000830152612135816120f9565b9050919050565b7f566f746572207265676973746572656420616c72656164792e00000000000000600082015250565b6000612172601983611b72565b915061217d8261213c565b602082019050919050565b600060208201905081810360008301526121a181612165565b9050919050565b7f5468697320766f7465722773207369676e6174757265206973206e6f7420766560008201527f7269666965640000000000000000000000000000000000000000000000000000602082015250565b6000612204602683611b72565b915061220f826121a8565b604082019050919050565b60006020820190508181036000830152612233816121f7565b9050919050565b6000612245826115e6565b91507fffffffffffffffffffffffffffffffffffffffffffffffffffffffffffffffff82141561227857612277611e68565b5b60018201905091905056fea2646970667358221220b5e12e488897524bb48f1a5bf868fde2f82c5f96dbe9f3bd1964628b28c6e3c964736f6c634300080c0033",
  "immutableReferences": {},
  "source": "// SPDX-License-Identifier: MIT\r\npragma solidity >=0.6.6 <0.9.0;\r\n\r\ncontract Voters {\r\n    address public admin;\r\n    struct Voter {\r\n        string name;\r\n        string email;\r\n        string signature;\r\n        address account;\r\n    }\r\n\r\n    // default to false, when registered, set can turn to login status directly\r\n    mapping(address => bool) public isRegister;\r\n\r\n    // the login address => the Voter struct info\r\n    mapping(address => Voter) public voters;\r\n\r\n    // voter id => voters address, when want to load all voters\r\n    mapping(uint256 => address) public voterAddress;\r\n\r\n    // voter address and their signature, set at verifySignature()\r\n    mapping(address => string) public voterSignature;\r\n\r\n    // check if this voter, at this election, has right to vote\r\n    mapping(address => mapping(uint256 => bool)) public canVote;\r\n\r\n    // check if this voter, at this election, vote or not\r\n    mapping(address => mapping(uint256 => bool)) public isVoted;\r\n\r\n    // total voter\r\n    uint256 public voterCount = 0;\r\n\r\n    // use to ensure parameter is not empty\r\n    modifier notEmpty(string memory _name, string memory _email) {\r\n        require(\r\n            keccak256(abi.encodePacked(_name)) !=\r\n                keccak256(abi.encodePacked(\"\")),\r\n            \"Cannot be empty Information\"\r\n        );\r\n        require(\r\n            keccak256(abi.encodePacked(_email)) !=\r\n                keccak256(abi.encodePacked(\"\")),\r\n            \"Cannot be empty Information\"\r\n        );\r\n        _;\r\n    }\r\n\r\n    constructor() public {\r\n        admin = msg.sender;\r\n    }\r\n\r\n    event verifySigner(bytes32 message, address signer);\r\n\r\n    /**\r\n        createVoter creates a new voter\r\n        :param _name: voter's name\r\n        :param _email: voter's email\r\n        :hashMsg, signature, string sign: use at verifySignature()\r\n     */\r\n    function createVoter(\r\n        string calldata _name,\r\n        string calldata _email,\r\n        bytes32 hashMsg,\r\n        bytes calldata signature,\r\n        string calldata stringSign\r\n    ) external notEmpty(_name, _email) {\r\n        require(isRegister[msg.sender] == false, \"Voter registered already.\");\r\n        require(\r\n            verifySignature(hashMsg, signature, stringSign) == msg.sender,\r\n            \"This voter's signature is not verified\"\r\n        );\r\n        voters[msg.sender] = Voter(_name, _email, stringSign, msg.sender);\r\n        isRegister[msg.sender] = true;\r\n        voterAddress[voterCount] = msg.sender;\r\n        voterCount++;\r\n    }\r\n\r\n    /**\r\n        editVoter edit the exist voter\r\n        :param _name: voter's name\r\n        :param _email: voter's email\r\n     */\r\n    function editVoter(string calldata _name, string calldata _email)\r\n        external\r\n        notEmpty(_name, _email)\r\n    {\r\n        require(isRegister[msg.sender] == true);\r\n        Voter memory voter = voters[msg.sender];\r\n        require(\r\n            voter.account == msg.sender,\r\n            \"Only the owner can edit their own profile\"\r\n        );\r\n        voter.name = _name;\r\n        voter.email = _email;\r\n        voters[msg.sender] = voter;\r\n    }\r\n\r\n    function setIsVoted(address _voter, uint256 id) public {\r\n        isVoted[_voter][id] = true;\r\n    }\r\n\r\n    function setCanVote(uint256 id, address addr) public {\r\n        require(tx.origin == admin);\r\n        canVote[addr][id] = true;\r\n    }\r\n\r\n    /**\r\n     * hashMsg - the hashed message that a voter sign\r\n     * byte signature - use to split to r, s and v\r\n     * stringSign - when it is verified, store the signature\r\n     */\r\n    function verifySignature(\r\n        bytes32 hashMsg,\r\n        bytes memory signature,\r\n        string memory stringSign\r\n    ) public returns (address) {\r\n        bytes32 signedHash = keccak256(\r\n            abi.encodePacked(\"\\x19Ethereum Signed Message:\\n32\", hashMsg)\r\n        );\r\n        uint8 v;\r\n        bytes32 r;\r\n        bytes32 s;\r\n\r\n        assembly {\r\n            r := mload(add(signature, 32))\r\n            s := mload(add(signature, 64))\r\n            v := and(mload(add(signature, 65)), 255)\r\n        }\r\n        if (v < 27) v += 27;\r\n\r\n        address signer = ecrecover(signedHash, v, r, s);\r\n        require(signer == msg.sender);\r\n        emit verifySigner(hashMsg, signer);\r\n        voterSignature[signer] = stringSign;\r\n        return signer;\r\n    }\r\n}\r\n",
  "sourcePath": "D:\\MMU\\Degree\\Third_Year\\Final Year Project\\Phase_2\\FYP_EVotingBlockchain\\E_Voting\\contracts\\Voters.sol",
  "compiler": {
    "name": "solc",
    "version": "0.8.12+commit.f00d7308.Emscripten.clang"
  },
  "schemaVersion": "3.4.3",
  "updatedAt": "2022-03-03T05:42:11.567Z",
  "networkType": "ethereum",
  "devdoc": {
    "kind": "dev",
    "methods": {},
    "version": 1
  },
  "userdoc": {
    "kind": "user",
    "methods": {
      "createVoter(string,string,bytes32,bytes,string)": {
        "notice": "createVoter creates a new voter :param _name: voter's name :param _email: voter's email :hashMsg, signature, string sign: use at verifySignature()"
      },
      "editVoter(string,string)": {
        "notice": "editVoter edit the exist voter :param _name: voter's name :param _email: voter's email"
      },
      "verifySignature(bytes32,bytes,string)": {
        "notice": "hashMsg - the hashed message that a voter sign byte signature - use to split to r, s and v stringSign - when it is verified, store the signature"
      }
    },
    "version": 1
  }
}